:100000000C9462000C94E5030C94BE030C948A00DB
:100010000C948A000C948A000C948A000C948A0038
:100020000C948A000C948A000C948A000C948A0028
:100030000C948A000C948A000C948A000C948A0018
:100040000C9474030C948A000C9442030C941C03CB
:100050000C948A000C948A000C948A000C948A00F8
:100060000C948A000C948A000000000025002800EF
:100070002B0000000000240027002A0000000000E0
:1000800023002600290004040404040404040202DA
:100090000202020203030303030301020408102007
:1000A0004080010204081020010204081020000012
:1000B0000008000201000003040700000000000027
:1000C0000000B30411241FBECFEFD8E0DEBFCDBFC8
:1000D00021E0A6E1B1E001C01D92AC3DB207E1F71D
:1000E00011E0A0E0B1E0E4E1FDE002C005900D9276
:1000F000A631B107D9F710E0C2E6D0E004C02197DD
:10010000FE010E948206C136D107C9F70E940C0485
:100110000C9488060C940000AF92BF92CF92DF92AD
:10012000EF92FF920F931F93CF93DF936C017B01AC
:100130008B01040F151FEB015E01AE18BF08C0173D
:10014000D10759F06991D601ED91FC910190F081B0
:10015000E02DC6010995892B79F7C501DF91CF9173
:100160001F910F91FF90EF90DF90CF90BF90AF90D5
:100170000895FC01538D448D252F30E0842F90E0AD
:10018000821B930B541710F0CF9608950197089592
:10019000FC01918D828D981761F0A28DAE0FBF2F5B
:1001A000B11D5D968C91928D9F5F9F73928F90E0B1
:1001B00008958FEF9FEF0895FC01918D828D981720
:1001C00031F0828DE80FF11D858D90E008958FEF5D
:1001D0009FEF0895FC01918D228D892F90E0805C26
:1001E0009F4F821B91098F73992708958FE391E0A8
:1001F0000E94EA0021E0892B09F420E0822F089573
:1002000080E090E0892B29F00E94F60081110C9487
:1002100000000895FC01A48DA80FB92FB11DA35AA9
:10022000BF4F2C91848D90E001968F739927848F16
:10023000A689B7892C93A089B1898C918370806439
:100240008C93938D848D981306C00288F389E02DDA
:1002500080818F7D80830895EF92FF920F931F938B
:10026000CF93DF93EC0181E0888F9B8D8C8D981369
:100270001AC0E889F989808185FF15C09FB7F89475
:10028000EE89FF896083E889F989808183708064C1
:1002900080839FBF81E090E0DF91CF911F910F910C
:1002A000FF90EF900895F62E0B8D10E00F5F1F4F1B
:1002B0000F731127E02E8C8D8E110CC00FB607FC2A
:1002C000FACFE889F989808185FFF5CFCE010E94B8
:1002D0000A01F1CFEB8DEC0FFD2FF11DE35AFF4F1B
:1002E000F0829FB7F8940B8FEA89FB898081806246
:1002F000CFCFCF93DF93EC01888D8823B9F0AA8903
:10030000BB89E889F9898C9185FD03C0808186FDD0
:100310000DC00FB607FCF7CF8C9185FFF2CF80811F
:1003200085FFEDCFCE010E940A01E9CFDF91CF9189
:10033000089590E0FC01E255FF4F2491FC01E65640
:10034000FF4F3491FC01EA57FF4FE491EE23C1F1D6
:10035000222339F02330E9F090F4213001F12230EA
:1003600011F1F0E0EE0FFF1FE458FF4FA591B4919B
:10037000EC91E32381E090E029F580E008952730B7
:10038000A9F02830C9F0243061F7809180008F7D7A
:1003900003C0809180008F7780938000E2CF84B586
:1003A0008F7784BDDECF84B58F7DFBCF8091B00089
:1003B0008F778093B000D5CF8091B0008F7DF9CF3B
:1003C00080E090E00895CF93DF9390E0FC01E65643
:1003D000FF4F24918A579F4FFC0184918823D1F0CD
:1003E00090E0880F991FFC01EE58FF4FA591B49142
:1003F000FC01E859FF4FC591D49161110EC09FB720
:10040000F8948C91E22FE0958E238C932881E2233F
:10041000E8839FBFDF91CF9108958FB7F894EC9157
:10042000E22BEC938FBFF6CF3FB7F89480913B015E
:1004300090913C01A0913D01B0913E0126B5A89B51
:1004400005C02F3F19F00196A11DB11D3FBFBA2F66
:10045000A92F982F8827BC01CD01620F711D811D26
:10046000911D42E0660F771F881F991F4A95D1F7AB
:1004700008958F929F92AF92BF92CF92DF92EF92A8
:10048000FF920E9414020E94E7046B017C012091FC
:1004900022013091230140912401509125010E94B5
:1004A000970520E034E244E759E40E9404064B013A
:1004B0005C012FE632E143E85AE30E94E00487FD45
:1004C00040C082E00E949901892BD9F120911A0144
:1004D00030911B0140911C0150911D0160911E0142
:1004E00070911F018091200190912101A1E00E9453
:1004F000760620931A0130931B0140931C01509300
:100500001D0160931E0170931F0180932001909341
:100510002101A50194016CE779ED80EA9EE30E9438
:10052000040660931601709317018093180190934D
:100530001901C0922201D0922301E0922401F0928D
:100540002501FF90EF90DF90CF90BF90AF909F90EC
:100550008F9008958F929F92AF92BF92CF92DF9229
:10056000EF92FF920E9414020E94E7046B017C014B
:100570002091320130913301409134015091350185
:100580000E94970520E034E244E759E40E94040603
:100590004B015C012FE632E143E85AE30E94E0049C
:1005A00087FD40C083E00E949901892BD9F12091F9
:1005B0002A0130912B0140912C0150912D01609125
:1005C0002E0170912F018091300190913101A1E0B5
:1005D0000E94760620932A0130932B0140932C0130
:1005E00050932D0160932E0170932F018093300161
:1005F00090933101A50194016CE779ED80EA9EE3C7
:100600000E940406609326017093270180932801BD
:1006100090932901C0923201D0923301E0923401CB
:10062000F0923501FF90EF90DF90CF90BF90AF90A8
:100630009F908F90089508951F920F920FB60F927A
:1006400011242F933F934F935F936F937F938F93D7
:100650009F93AF93BF93EF93FF938FE391E00E943B
:100660000A01FF91EF91BF91AF919F918F917F917F
:100670006F915F914F913F912F910F900FBE0F900F
:100680001F9018951F920F920FB60F9211242F935F
:100690008F939F93EF93FF93E0914F01F09150015F
:1006A0008081E0915501F091560182FD1BC090813F
:1006B000809158018F5F8F7320915901821741F00B
:1006C000E0915801F0E0E15CFE4F958F8093580176
:1006D000FF91EF919F918F912F910F900FBE0F90EF
:1006E0001F9018958081F4CF1F920F920FB60F9232
:1006F00011242F933F938F939F93AF93BF93809138
:10070000370190913801A0913901B0913A013091AF
:10071000360123E0230F2D3758F50196A11DB11D99
:10072000209336018093370190933801A0933901CB
:10073000B0933A0180913B0190913C01A0913D0121
:10074000B0913E010196A11DB11D80933B01909394
:100750003C01A0933D01B0933E01BF91AF919F91A9
:100760008F913F912F910F900FBE0F901F90189572
:1007700026E8230F0296A11DB11DD2CF1F920F9222
:100780000FB60F9211242F933F934F935F936F9364
:100790007F938F939F93AF93BF93EF93FF93E091DA
:1007A0000201F09103010995FF91EF91BF91AF9183
:1007B0009F918F917F916F915F914F913F912F9179
:1007C0000F900FBE0F901F9018951F920F920FB6AB
:1007D0000F9211242F933F934F935F936F937F93C7
:1007E0008F939F93AF93BF93EF93FF93E09100019B
:1007F000F09101010995FF91EF91BF91AF919F9108
:100800008F917F916F915F914F913F912F910F90B9
:100810000FBE0F901F901895789484B5826084BDA8
:1008200084B5816084BD85B5826085BD85B58160F4
:1008300085BD80916E00816080936E001092810072
:10084000809181008260809381008091810081602D
:1008500080938100809180008160809380008091EE
:10086000B10084608093B1008091B000816080937A
:10087000B00080917A00846080937A0080917A0041
:10088000826080937A0080917A00816080937A0000
:1008900080917A00806880937A001092C10060E0B5
:1008A00082E00E94E30160E083E00E94E30161E0F6
:1008B0008DE00E94E30189E392E09093010180932F
:1008C000000180916900836080936900E89A8AEA58
:1008D00092E09093030180930201809169008C6003
:1008E00080936900E99AE0914F01F091500182E014
:1008F0008083E0914B01F0914C011082E0914D0119
:10090000F0914E018FEC808310925701E0915301DA
:10091000F091540186E08083E0915101F091520101
:10092000808180618083E0915101F091520180814A
:1009300088608083E0915101F0915201808180684C
:100940008083E0915101F091520180818F7D8083FD
:10095000C0E0D0E02097F1F30E94F6008823D1F3A5
:100960000E940000F7CFEFE3F1E01382128288EEDD
:1009700093E0A0E0B0E084839583A683B78388E00A
:1009800091E09183808385EC90E09587848784EC67
:1009900090E09787868780EC90E0918B808B81EC4C
:1009A00090E0938B828B82EC90E0958B848B86EC2D
:1009B00090E0978B868B118E128E138E148E089575
:1009C0000E94220508F481E00895E89409C097FB8D
:1009D0003EF490958095709561957F4F8F4F9F4F16
:1009E0009923A9F0F92F96E9BB279395F69587955A
:1009F00077956795B795F111F8CFFAF4BB0F11F41D
:100A000060FF1BC06F5F7F4F8F4F9F4F16C08823C3
:100A100011F096E911C0772321F09EE8872F762FF9
:100A200005C0662371F096E8862F70E060E02AF03A
:100A30009A95660F771F881FDAF7880F9695879526
:100A400097F90895990F0008550FAA0BE0E8FEEFFB
:100A500016161706E807F907C0F012161306E40782
:100A6000F50798F0621B730B840B950B39F40A267B
:100A700061F0232B242B252B21F408950A2609F459
:100A8000A140A6958FEF811D811D089597F99F675D
:100A900080E870E060E008959FEF80EC0895002406
:100AA0000A941616170618060906089500240A94D3
:100AB00012161306140605060895092E0394000C59
:100AC00011F4882352F0BB0F40F4BF2B11F460FFE8
:100AD00004C06F5F7F4F8F4F9F4F089557FD905811
:100AE000440F551F59F05F3F71F04795880F97FBF2
:100AF000991F61F09F3F79F08795089512161306AC
:100B00001406551FF2CF4695F1DF08C016161706DA
:100B10001806991FF1CF869571056105089408950F
:100B2000E894BB2766277727CB0197F9089550589B
:100B3000BB27AA270E94AF050C945D050E944F05B4
:100B400038F00E94560520F039F49F3F19F426F43E
:100B50000C944C050EF4E095E7FB0C944605E92F48
:100B60000E946E0558F3BA1762077307840795074A
:100B700020F079F4A6F50C9490050EF4E0950B2E78
:100B8000BA2FA02D0B01B90190010C01CA01A001DF
:100B90001124FF27591B99F0593F50F4503E68F13A
:100BA0001A16F040A22F232F342F4427585FF3CF7B
:100BB000469537952795A795F0405395C9F77EF44C
:100BC0001F16BA0B620B730B840BBAF09150A1F095
:100BD000FF0FBB1F661F771F881FC2F70EC0BA0F1B
:100BE000621F731F841F48F4879577956795B795A3
:100BF000F7959E3F08F0B0CF9395880F08F099279E
:100C0000EE0F9795879508950E9418060C945D0540
:100C10000E94560558F00E944F0540F029F45F3FAE
:100C200029F00C94460551110C9491050C944C0537
:100C30000E946E0568F39923B1F3552391F3951B38
:100C4000550BBB27AA2762177307840738F09F5FED
:100C50005F4F220F331F441FAA1FA9F335D00E2E5A
:100C60003AF0E0E832D091505040E695001CCAF7C7
:100C70002BD0FE2F29D0660F771F881FBB1F26178A
:100C800037074807AB07B0E809F0BB0B802DBF0161
:100C9000FF2793585F4F3AF09E3F510578F00C9430
:100CA00046050C9491055F3FE4F3983ED4F3869596
:100CB00077956795B795F7959F5FC9F7880F911D51
:100CC0009695879597F90895E1E0660F771F881F3D
:100CD000BB1F621773078407BA0720F0621B730BF0
:100CE000840BBA0BEE1F88F7E09508950024A7FD4A
:100CF00000942A0F301D401D501D601D701D801D69
:100D0000901D0895EE0FFF1F0590F491E02D0994BA
:040D1000F894FFCF85
:100D14001B031B03000000002C018C00B9007901A7
:060D2400EA00C800DC003B
:00000001FF
