:100000000C9462000C94F5040C94CE040C948A00B9
:100010000C948A000C948A000C948A000C948A0038
:100020000C948A000C948A000C948A000C948A0028
:100030000C948A000C948A000C948A000C948A0018
:100040000C9484040C948A000C9452040C942C0498
:100050000C948A000C948A000C948A000C948A00F8
:100060000C948A000C948A000000000024002700F1
:100070002A0000000000250028002B0000000000DE
:1000800023002600290004040404040404040202DA
:100090000202020203030303030301020408102007
:1000A0004080010204081020010204081020000012
:1000B0000008000201000003040700000000000027
:1000C0000000450911241FBECFEFD8E0DEBFCDBF31
:1000D00021E0AAE1B1E001C01D92A03EB207E1F724
:1000E00011E0A0E0B1E0ECE6F8E102C005900D926D
:1000F000AA31B107D9F710E0C2E6D0E004C02197D9
:10010000FE010E942E0CC136D107C9F70E941C05C2
:100110000C94340C0C940000AF92BF92CF92DF92FB
:10012000EF92FF920F931F93CF93DF936C017B01AC
:100130008B01040F151FEB015E01AE18BF08C0173D
:10014000D10759F06991D601ED91FC910190F081B0
:10015000E02DC6010995892B79F7C501DF91CF9173
:100160001F910F91FF90EF90DF90CF90BF90AF90D5
:100170000895FC01538D448D252F30E0842F90E0AD
:10018000821B930B541710F0CF9608950197089592
:10019000FC01918D828D981761F0A28DAE0FBF2F5B
:1001A000B11D5D968C91928D9F5F9F73928F90E0B1
:1001B00008958FEF9FEF0895FC01918D828D981720
:1001C00031F0828DE80FF11D858D90E008958FEF5D
:1001D0009FEF0895FC01918D228D892F90E0805C26
:1001E0009F4F821B91098F739927089583E491E0B3
:1001F0000E94EA0021E0892B09F420E0822F089573
:1002000080E090E0892B29F00E94F60081110C9487
:1002100000000895FC01A48DA80FB92FB11DA35AA9
:10022000BF4F2C91848D90E001968F739927848F16
:10023000A689B7892C93A089B1898C918370806439
:100240008C93938D848D981306C00288F389E02DDA
:1002500080818F7D80830895EF92FF920F931F938B
:10026000CF93DF93EC0181E0888F9B8D8C8D981369
:100270001AC0E889F989808185FF15C09FB7F89475
:10028000EE89FF896083E889F989808183708064C1
:1002900080839FBF81E090E0DF91CF911F910F910C
:1002A000FF90EF900895F62E0B8D10E00F5F1F4F1B
:1002B0000F731127E02E8C8D8E110CC00FB607FC2A
:1002C000FACFE889F989808185FFF5CFCE010E94B8
:1002D0000A01F1CFEB8DEC0FFD2FF11DE35AFF4F1B
:1002E000F0829FB7F8940B8FEA89FB898081806246
:1002F000CFCF682F83E491E00C942C01CF93DF9350
:10030000EC01888D8823B9F0AA89BB89E889F9892D
:100310008C9185FD03C0808186FD0DC00FB607FC62
:10032000F7CF8C9185FFF2CF808185FFEDCFCE0195
:100330000E940A01E9CFDF91CF910895833081F0C7
:1003400028F4813099F08230A9F008958730A9F01F
:100350008830C9F08430B1F4809180008F7D03C073
:10036000809180008F7780938000089584B58F7787
:1003700084BD089584B58F7DFBCF8091B0008F77C9
:100380008093B00008958091B0008F7DF9CFCF9316
:10039000DF93282F30E0F901E255FF4F8491F901F6
:1003A000E656FF4FD491F901EA57FF4FC491CC2391
:1003B000A1F081110E949E01EC2FF0E0EE0FFF1FD3
:1003C000E458FF4FA591B491EC91ED2381E090E0CA
:1003D00009F480E0DF91CF91089580E090E0FACFBA
:1003E0001F93CF93DF93282F30E0F901E255FF4FA1
:1003F0008491F901E656FF4FD491F901EA57FF4F76
:10040000C491CC23A9F0162F81110E949E01EC2FDC
:10041000F0E0EE0FFF1FEE58FF4FA591B4918FB79C
:10042000F894EC91111108C0D095DE23DC938FBFB6
:10043000DF91CF911F910895DE2BF8CFCF93DF93FB
:1004400090E0FC01E656FF4F24918A579F4FFC0134
:1004500084918823D1F090E0880F991FFC01E8591E
:10046000FF4FA591B491FC01EE58FF4FC591D49177
:1004700061110EC09FB7F8948C91E22FE0958E2306
:100480008C932881E223E8839FBFDF91CF91089569
:100490008FB7F894EC91E22BEC938FBFF6CF1F93BC
:1004A000CF93DF93182FEB0161E00E941E0220978B
:1004B00039F460E0812FDF91CF911F910C94F0010E
:1004C000CF3FD10511F461E0F5CFE12FF0E0E25527
:1004D000FF4FE491E33031F140F4E130B1F0E2302C
:1004E000E1F0C038D1057CF7E4CFE73029F1E830FE
:1004F00059F1E430B1F780918000806280938000F0
:10050000D0938B00C0938A0004C084B5806884BDFA
:10051000C7BDDF91CF911F91089584B5806284BDDE
:10052000C8BDF7CF80918000806880938000D09311
:100530008900C0938800EDCF8091B00080688093DF
:10054000B000C093B300E5CF8091B000806280938B
:10055000B000C093B400DDCF3FB7F894809127017D
:1005600090912801A0912901B0912A0126B5A89B5C
:1005700005C02F3F19F00196A11DB11D3FBFBA2F35
:10058000A92F982F8827BC01CD01620F711D811DF5
:10059000911D42E0660F771F881F991F4A95D1F77A
:1005A00008958F929F92AF92BF92CF92DF92EF9277
:1005B000FF920E94AC020E9479096B017C0120919C
:1005C0001A0130911B0140911C0150911D010E94A4
:1005D000960A20E034E244E759E40E94030B4B0101
:1005E0005C012FE632E143E85AE30E94720987FD7D
:1005F00040C082E00E94C701892BD9F120913301CC
:1006000030913401409135015091360160913701AC
:10061000709138018091390190913A01A1E00E94D6
:10062000100C2093330130933401409335015093E3
:1006300036016093370170933801809339019093AC
:100640003A01A50194016CE779ED80EA9EE30E94EE
:10065000030B60932B0170932C0180932D019093D9
:100660002E01C0921A01D0921B01E0921C01F0925F
:100670001D01FF90EF90DF90CF90BF90AF909F90C3
:100680008F9008958F929F92AF92BF92CF92DF92F8
:10069000EF92FF920E94AC020E9479096B017C01EB
:1006A00020911E0130911F014091200150912101A4
:1006B0000E94960A20E034E244E759E40E94030BCA
:1006C0004B015C012FE632E143E85AE30E947209D4
:1006D00087FD40C083E00E94C701892BD9F120919A
:1006E0003B0130913C0140913D0150913E016091B0
:1006F0003F01709140018091410190914201A1E040
:100700000E94100C20933B0130933C0140933D012B
:1007100050933E0160933F017093400180934101EB
:1007200090934201A50194016CE779ED80EA9EE384
:100730000E94030B60932F0170933001809331016D
:1007400090933201C0921E01D0921F01E0922001CD
:10075000F0922101FF90EF90DF90CF90BF90AF908B
:100760009F908F90089508958F929F92AF92BF921D
:100770000F931F93CF93DF93CDB7DEB7A1970FB63B
:10078000F894DEBF0FBECDBF19A2423008F44AE094
:100790008E010F5D1F4F842E912CB12CA12CA50131
:1007A00094010E94EE0BE62FB901CA01EA3044F52C
:1007B000E05DD801EE938D01232B242B252B79F7B7
:1007C00090E080E0109769F0FD0101900020E9F7CA
:1007D0003197AF014A1B5B0BBD0183E491E00E949E
:1007E0008C00A1960FB6F894DEBF0FBECDBFDF918F
:1007F000CF911F910F91BF90AF909F908F900895D0
:10080000E95CD7CFCF92DF92EF92FF92CF93DF9345
:1008100097FF19C06B017C018DE20E947901EC0108
:1008200066277727CB016C197D098E099F094AE05D
:100830000E94B4038C0F9D1FDF91CF91FF90EF902A
:10084000DF90CF9008954AE0DF91CF91FF90EF9035
:10085000DF90CF900C94B4031F920F920FB60F92BB
:1008600011242F933F934F935F936F937F938F93B5
:100870009F93AF93BF93EF93FF9383E491E00E9424
:100880000A01FF91EF91BF91AF919F918F917F915D
:100890006F915F914F913F912F910F900FBE0F90ED
:1008A0001F9018951F920F920FB60F9211242F933D
:1008B0008F939F93EF93FF93E0915301F091540135
:1008C0008081E0915901F0915A0182FD1BC0908115
:1008D00080915C018F5F8F7320915D01821741F0E1
:1008E000E0915C01F0E0ED5BFE4F958F80935C0141
:1008F000FF91EF919F918F912F910F900FBE0F90CD
:100900001F9018958081F4CF1F920F920FB60F920F
:1009100011242F933F938F939F93AF93BF93809115
:10092000230190912401A0912501B09126013091DD
:10093000220123E0230F2D3758F50196A11DB11D8B
:10094000209322018093230190932401A0932501F9
:10095000B09326018091270190912801A09129014F
:10096000B0912A010196A11DB11D8093270190939A
:100970002801A0932901B0932A01BF91AF919F91C3
:100980008F913F912F910F900FBE0F901F90189550
:1009900026E8230F0296A11DB11DD2CF1F920F9200
:1009A0000FB60F9211242F933F934F935F936F9342
:1009B0007F938F939F93AF93BF93EF93FF93E091B8
:1009C0000201F09103010995FF91EF91BF91AF9161
:1009D0009F918F917F916F915F914F913F912F9157
:1009E0000F900FBE0F901F9018951F920F920FB689
:1009F0000F9211242F933F934F935F936F937F93A5
:100A00008F939F93AF93BF93EF93FF93E091000178
:100A1000F09101010995FF91EF91BF91AF919F91E5
:100A20008F917F916F915F914F913F912F910F9097
:100A30000FBE0F901F901895CF93DF93CDB7DEB701
:100A4000EC970FB6F894DEBF0FBECDBF789484B597
:100A5000826084BD84B5816084BD85B5826085BDBA
:100A600085B5816085BD80916E00816080936E0048
:100A7000109281008091810082608093810080913A
:100A800081008160809381008091800081608093EB
:100A900080008091B10084608093B1008091B000AB
:100AA00081608093B00080917A00846080937A00A6
:100AB00080917A00826080937A0080917A008160D0
:100AC00080937A0080917A00806880937A001092F7
:100AD000C10060E082E00E941E0260E083E00E94AC
:100AE0001E0261E08DE00E941E0281ED92E0909373
:100AF0000101809300018091690083608093690007
:100B0000E89A82E493E0909303018093020180913C
:100B100069008C6080936900E99AE0915301F0913B
:100B2000540182E08083E0914F01F09150011082E6
:100B3000E0915101F09152018FEC808310925B01A2
:100B4000E0915701F091580196E09083E0915501B2
:100B5000F0915601808180618083E0915501F09190
:100B60005601808188608083E0915501F0915601A3
:100B7000808180688083E0915501F09156018081E9
:100B80008F7D8083998387E08A8389E08B8388E0E7
:100B90008C838AE08D838BE08E8361E086E00E9407
:100BA0001E0261E087E00E941E0261E089E00E946F
:100BB0001E0261E087E00E941E0261E08AE00E945E
:100BC0001E0261E08BE00E941E02412C512C32017A
:100BD0004BA25CA26DA27EA283E491E00E94EA0097
:100BE000892BD1F383E491E00E94EA00892B29F05C
:100BF00083E491E00E94C800F5CFD0903B01E090E3
:100C00003C01F0903D0100913E0110913F01B091F7
:100C10004001F0914101E091420120913301309176
:100C20003401409135015091360160913701709146
:100C300038018091390190913A01AFE00E94100C87
:100C40002F83388749875A876B877C878D879E8754
:100C50002D2D3E2D4F2D502F612F7B2F8F2F9E2F0F
:100C60000E94100C2F87388B498B5A8B6B8B7C8B97
:100C70008D8B9E8B0E94AC027B018C0120E030E0CA
:100C8000A9016F8BF88E898F1A8F2B8F3C8F4D8F18
:100C90005E8F1F8E18A219A21AA20F811885012E2D
:100CA000000C220B330B0DAB1EAB2FAB38AF2F85D7
:100CB0003889032E000C440B550B29AF3AAF4BAFCC
:100CC0005CAF80902F0190903001A0903101B090E6
:100CD000320120912B0130912C0140912D01509136
:100CE0002E0180913B018FA390913C0198A7A09188
:100CF0003D01A9A7B0913E01BAA7E0903F01EBA644
:100D0000F0904001FCA6009141010DA71091420115
:100D10001EA7E0903301EFA6F0903401F8AA0091ED
:100D2000350109AB109136011AABE0903701EBAAFF
:100D3000F0903801FCAA0091390110913A0160E06D
:100D400070E080E291E40E94960A6B017C0120E051
:100D500030E040E85FE36BA17CA18DA19EA10E94E1
:100D6000E90B18164CF420E030E0A901C701B601E8
:100D70000E94E90B18164CF120E030E040E85FEBF0
:100D80006BA17CA18DA19EA10E94720987FF09C061
:100D900020E030E0A901C701B6010E94720987FD79
:100DA00014C0A70196016F8D78A189A19AA10E9414
:100DB000D8099B01AC016BA17CA18DA19EA10E94D1
:100DC000970A6BA37CA38DA39EA326E636E646E690
:100DD0005EE3C701B6010E94D8096B017C012CEECD
:100DE00031E548EB5EE36BA17CA18DA19EA10E9441
:100DF000D8099B01AC01C701B6010E94970A6B019B
:100E00007C01A501940160E070E080E291E40E9421
:100E1000960A4B015C0120E030E040E85FE3C3014B
:100E2000B2010E94E90B18164CF420E030E0A90151
:100E3000C501B4010E94E90B18161CF120E030E056
:100E400040E85FEBC301B2010E94720987FF09C04D
:100E500020E030E0A901C501B4010E94720987FDBC
:100E600010C0A50194016F8D78A189A19AA10E945B
:100E7000D8099B01AC01C301B2010E94970A2B0162
:100E80003C0126E636E646E65EE3C501B4010E9473
:100E9000D8094B015C012CEE31E548EB5EE3C30160
:100EA000B2010E94D8099B01AC01C501B4010E94A6
:100EB000970A4B015C0120E030E0A901C701B601AF
:100EC0000E94E90B20E030E0A90118160CF0A1C047
:100ED000C501B4010E94E90B18160CF43EC020E0D5
:100EE00030E040E85FEBC701B6010E947209812C37
:100EF000912C540187FD45C020E030E040E85FE3DD
:100F0000C701B6010E94E90B20E030E040E85FEB4A
:100F100018160CF49CC0C501B4010E94720987FD2B
:100F200047C020E030E040E85FE3C501B4010E9423
:100F3000E90B1816B4F120E030E0A901C701B601B1
:100F40000E94E90B18160CF494C020E030E04FE743
:100F500053E4C701B601905892C020E030E040E869
:100F60005FEBC701B6010E94720987FFC5CF20E081
:100F700030E040E85FEBC501B4010E94720987FDD3
:100F80001EC020E030E040E85FE3C501B4010E94EC
:100F9000E90BC12CD12C90E8E92E9FEBF92E181605
:100FA000A4F6812C912C70E8A72E7FE3B72EC3CF37
:100FB000812C912C60E8A62E6FEBB62EBCCF812C35
:100FC000912C30E8A32E3FEBB32E75016401BDCF09
:100FD000C501B40190586AC060E0822D0E94F00102
:100FE00061E07BC060E08E2D0E94F00161E088C06E
:100FF00060E089810E941E0260E08A810E941E02D8
:1010000060E08B810E941E0260E08C810E941E02C3
:10101000E3CDC501B4010E94E90BC12CD12C7601AE
:1010200018160CF05CCF20E030E040E85FEBC50123
:10103000B4010E94720987FF19C1812C912C20E80C
:10104000A22E2FEBB22EC12CD12C76017ECFC50162
:10105000B4010E94720987FFF5C0812C912C50E8E1
:10106000A52E5FEBB52EC12CD12C40E8E42E4FE32A
:10107000F42E20E030E04FE753E4C701B6010E94B0
:10108000D8090E94750B8D810E944F0220E030E04C
:10109000A901C501B4010E94E90B20E030E04FE74F
:1010A00053E418160CF094CFC501B4010E94D8097E
:1010B0000E94750B8E810E944F0229803A8020E0A9
:1010C00030E0A901C701B6010E94E90B87FD84CF7A
:1010D00061E0822D0E94F00160E0832D0E94F0010A
:1010E000EB80FC8020E030E0A901C501B4010E9442
:1010F000E90B87FD77CF61E08E2D0E94F00160E063
:101100008F2D0E94F0012F81388549855A856B8586
:101110007C858D859E85AFA4B8A8C9A8DAA8EBA860
:10112000FCA80E94250C09F008F462CF2F853889AD
:1011300049895A896B897C898D899E89AFA0B8A419
:10114000C9A4DAA4EBA4FCA40DA51EA50E94250C3D
:1011500009F008F44DCF0091330110913401209132
:10116000350130913601409137015091380160913D
:10117000390170913A01B801110F880B990B0E9447
:10118000020489E00E94790100913B0110913C0129
:1011900020913D0130913E0140913F01509140012D
:1011A0006091410170914201B801110F880B990BB8
:1011B0000E94020489E00E9479016DA97EA98FA98D
:1011C00098AD0E94020489E00E94790169AD7AAD70
:1011D0008BAD9CAD0E94020442E050E066E171E0FC
:1011E00083E491E00E948C000E94AC029B01AC0160
:1011F00060E070E080E090E0AF88B88CC98CDA8C59
:10120000EB8CFC8C0D8D1E8D0E941C0C0E94AB0B78
:1012100020E034E244E759E40E94030B6F8F78A387
:1012200089A39AA30E94AC027B018C0120E030E0EC
:10123000A9016F8BF88E898F1A8F2B8F3C8F4D8F62
:101240005E8F3FCD20E030E040E85FE3C501B401B0
:101250000E94E90B18160CF006CF812C912C80E827
:10126000A82E8FE3B82E7501640103CF20E030E093
:1012700040E85FE3C501B4010E94E90BC12CD12C09
:10128000760118160CF48DCEDECEE3E4F1E0138285
:10129000128288EE93E0A0E0B0E084839583A68379
:1012A000B78388E091E09183808385EC90E0958717
:1012B000848784EC90E09787868780EC90E0918B20
:1012C000808B81EC90E0938B828B82EC90E0958B0D
:1012D000848B86EC90E0978B868B118E128E138E0A
:1012E000148E08950E94B40908F481E00895E894EA
:1012F00009C097FB3EF490958095709561957F4F5E
:101300008F4F9F4F9923A9F0F92F96E9BB2793950B
:10131000F695879577956795B795F111F8CFFAF41B
:10132000BB0F11F460FF1BC06F5F7F4F8F4F9F4F4C
:1013300016C0882311F096E911C0772321F09EE8AA
:10134000872F762F05C0662371F096E8862F70E010
:1013500060E02AF09A95660F771F881FDAF7880FEA
:101360009695879597F90895990F0008550FAA0B40
:10137000E0E8FEEF16161706E807F907C0F01216A8
:101380001306E407F50798F0621B730B840B950BAB
:1013900039F40A2661F0232B242B252B21F4089500
:1013A0000A2609F4A140A6958FEF811D811D08959D
:1013B0000E94EB090C945C0A0E944E0A38F00E94CD
:1013C000550A20F0952311F00C94450A0C944B0A11
:1013D00011240C94900A0E946D0A70F3959FC1F33A
:1013E000950F50E0551F629FF001729FBB27F00DD3
:1013F000B11D639FAA27F00DB11DAA1F649F662728
:10140000B00DA11D661F829F2227B00DA11D621F76
:10141000739FB00DA11D621F839FA00D611D221F30
:10142000749F3327A00D611D231F849F600D211D14
:10143000822F762F6A2F11249F5750409AF0F1F097
:1014400088234AF0EE0FFF1FBB1F661F771F881F00
:1014500091505040A9F79E3F510580F00C94450AE9
:101460000C94900A5F3FE4F3983ED4F38695779509
:101470006795B795F795E7959F5FC1F7FE2B880FA6
:10148000911D9695879597F9089597F99F6780E83C
:1014900070E060E008959FEF80EC089500240A94C6
:1014A0001616170618060906089500240A9412163F
:1014B0001306140605060895092E0394000C11F472
:1014C000882352F0BB0F40F4BF2B11F460FF04C01F
:1014D0006F5F7F4F8F4F9F4F089557FD9058440F78
:1014E000551F59F05F3F71F04795880F97FB991F83
:1014F00061F09F3F79F08795089512161306140640
:10150000551FF2CF4695F1DF08C0161617061806CC
:10151000991FF1CF86957105610508940895E894A7
:10152000BB2766277727CB0197F908955058BB272B
:10153000AA270E94AE0A0C945C0A0E944E0A38F058
:101540000E94550A20F039F49F3F19F426F40C94B8
:101550004B0A0EF4E095E7FB0C94450AE92F0E9434
:101560006D0A58F3BA17620773078407950720F0CE
:1015700079F4A6F50C948F0A0EF4E0950B2EBA2F91
:10158000A02D0B01B90190010C01CA01A001112489
:10159000FF27591B99F0593F50F4503E68F11A1635
:1015A000F040A22F232F342F4427585FF3CF4695C6
:1015B00037952795A795F0405395C9F77EF41F16E8
:1015C000BA0B620B730B840BBAF09150A1F0FF0FB2
:1015D000BB1F661F771F881FC2F70EC0BA0F621F9E
:1015E000731F841F48F4879577956795B795F7958E
:1015F0009E3F08F0B0CF9395880F08F09927EE0F23
:101600009795879508950E94170B0C945C0A0E9489
:10161000550A58F00E944E0A40F029F45F3F29F025
:101620000C94450A51110C94900A0C944B0A0E9498
:101630006D0A68F39923B1F3552391F3951B550B6C
:10164000BB27AA2762177307840738F09F5F5F4F95
:10165000220F331F441FAA1FA9F335D00E2E3AF0D4
:10166000E0E832D091505040E695001CCAF72BD0EC
:10167000FE2F29D0660F771F881FBB1F261737073D
:101680004807AB07B0E809F0BB0B802DBF01FF276F
:1016900093585F4F3AF09E3F510578F00C94450AFD
:1016A0000C94900A5F3FE4F3983ED4F386957795C7
:1016B0006795B795F7959F5FC9F7880F911D969528
:1016C000879597F90895E1E0660F771F881FBB1F84
:1016D000621773078407BA0720F0621B730B840B31
:1016E000BA0BEE1F88F7E09508950E947C0B689472
:1016F000B1110C94900A08950E94750A88F09F57C2
:1017000098F0B92F9927B751B0F0E1F0660F771F25
:10171000881F991F1AF0BA95C9F714C0B13091F01B
:101720000E948F0AB1E008950C948F0A672F782FDA
:101730008827B85F39F0B93FCCF3869577956795E0
:10174000B395D9F73EF490958095709561957F4F4C
:101750008F4F9F4F0895E894F92F96EBFF2381F068
:10176000121613061406440B9395F69587957795F4
:10177000679557954040FF23B9F71BC099270895F7
:10178000882351F49850D2F7872B762F652F542F4A
:10179000432F322F20E0B1F3121613061406440B28
:1017A00088233AF09A95440F551F661F771F881FAC
:1017B000CAF755234AF4440F551F11F460FF04C0C3
:1017C0006F5F7F4F8F4F9F4F880F9695879597F943
:1017D00008950E94B40908F48FEF0895A1E21A2E2B
:1017E000AA1BBB1BFD010DC0AA1FBB1FEE1FFF1FC5
:1017F000A217B307E407F50720F0A21BB30BE40B15
:10180000F50B661F771F881F991F1A9469F760955B
:101810007095809590959B01AC01BD01CF01089515
:101820000024A7FD00942A0F301D401D501D601D8F
:10183000701D801D901D08952A193B094C095D09F2
:101840006E097F09800B910B08952A153B054C0505
:101850005D056E057F05800791070895EE0FFF1F58
:0C1860000590F491E02D0994F894FFCF5E
:10186C00B303B303000000002C018C00B9007E010F
:0A187C00EA00C800DC000D0A0000BD
:00000001FF
