:020000040000FA
:100000000C9462000C9486070C945F070C948A0091
:100010000C948A000C948A000C948A000C948A0038
:100020000C948A000C948A000C948A000C948A0028
:100030000C948A000C948A000C948A000C948A0018
:100040000C9415070C948A000C94E3060C94BD06DE
:100050000C948A000C948A000C948A000C948A00F8
:100060000C94AD070C948A000000000024002700C7
:100070002A0000000000250028002B0000000000DE
:1000800023002600290004040404040404040202DA
:100090000202020203030303030301020408102007
:1000A0004080010204081020010204081020000012
:1000B0000008000201000003040700000000000027
:1000C0000000C80811241FBECFEFD8E0DEBFCDBFAF
:1000D00022E0A4E4B1E001C01D92AB37B207E1F722
:1000E00011E0A0E0B1E0E2E4FCE102C005900D9275
:1000F000A434B107D9F710E0C2E6D0E004C02197DC
:10010000FE010E94190EC136D107C9F70E94F508F9
:100110000C941F0E0C940000AF92BF92CF92DF920E
:10012000EF92FF920F931F93CF93DF936C017B01AC
:100130008B01040F151FEB015E01AE18BF08C0173D
:10014000D10759F06991D601ED91FC910190F081B0
:10015000E02DC6010995892B79F7C501DF91CF9173
:100160001F910F91FF90EF90DF90CF90BF90AF90D5
:100170000895FC01538D448D252F30E0842F90E0AD
:10018000821B930B541710F0CF9608950197089592
:10019000FC01918D828D981761F0A28DAE0FBF2F5B
:1001A000B11D5D968C91928D9F5F9F73928F90E0B1
:1001B00008958FEF9FEF0895FC01918D828D981720
:1001C00031F0828DE80FF11D858D90E008958FEF5D
:1001D0009FEF0895FC01918D228D892F90E0805C26
:1001E0009F4F821B91098F73992708958EED91E09F
:1001F0000E94EA0021E0892B09F420E0822F089573
:1002000080E090E0892B29F00E94F60081110C9487
:1002100000000895FC01A48DA80FB92FB11DA35AA9
:10022000BF4F2C91848D90E001968F739927848F16
:10023000A689B7892C93A089B1898C918370806439
:100240008C93938D848D981306C00288F389E02DDA
:1002500080818F7D80830895EF92FF920F931F938B
:10026000CF93DF93EC0181E0888F9B8D8C8D981369
:100270001AC0E889F989808185FF15C09FB7F89475
:10028000EE89FF896083E889F989808183708064C1
:1002900080839FBF81E090E0DF91CF911F910F910C
:1002A000FF90EF900895F62E0B8D10E00F5F1F4F1B
:1002B0000F731127E02E8C8D8E110CC00FB607FC2A
:1002C000FACFE889F989808185FFF5CFCE010E94B8
:1002D0000A01F1CFEB8DEC0FFD2FF11DE35AFF4F1B
:1002E000F0829FB7F8940B8FEA89FB898081806246
:1002F000CFCFCF93DF93EC01888D8823B9F0AA8903
:10030000BB89E889F9898C9185FD03C0808186FDD0
:100310000DC00FB607FCF7CF8C9185FFF2CF80811F
:1003200085FFEDCFCE010E940A01E9CFDF91CF9189
:100330000895833081F028F4813099F08230A9F05B
:1003400008958730A9F08830C9F08430B1F48091E5
:1003500080008F7D03C0809180008F778093800024
:10036000089584B58F7784BD089584B58F7DFBCFC4
:100370008091B0008F778093B00008958091B00095
:100380008F7DF9CFCF93DF93282F30E0F901E2552D
:10039000FF4F8491F901E656FF4FD491F901EA57D6
:1003A000FF4FC491CC23A1F081110E949901EC2F41
:1003B000F0E0EE0FFF1FE458FF4FA591B491EC91D0
:1003C000ED2381E090E009F480E0DF91CF91089582
:1003D00080E090E0FACF1F93CF93DF93282F30E097
:1003E000F901E255FF4F8491F901E656FF4FD49190
:1003F000F901EA57FF4FC491CC23A9F0162F8111C0
:100400000E949901EC2FF0E0EE0FFF1FEE58FF4F16
:10041000A591B4918FB7F894EC91111108C0D095C3
:10042000DE23DC938FBFDF91CF911F910895DE2BE8
:10043000F8CFCF93DF9390E0FC01E656FF4F249175
:100440008A579F4FFC0184918823D1F090E0880F58
:10045000991FFC01E859FF4FA591B491FC01EE589A
:10046000FF4FC591D49161110EC09FB7F8948C9144
:10047000E22FE0958E238C932881E223E8839FBFAF
:10048000DF91CF9108958FB7F894EC91E22BEC9324
:100490008FBFF6CF1F93CF93DF93182FEB0161E04F
:1004A0000E941902209739F460E0812FDF91CF91EB
:1004B0001F910C94EB01CF3FD10511F461E0F5CF12
:1004C000E12FF0E0E255FF4FE491E33031F140F4E9
:1004D000E130B1F0E230E1F0C038D1057CF7E4CF93
:1004E000E73029F1E83059F1E430B1F7809180002C
:1004F000806280938000D0938B00C0938A0004C0F8
:1005000084B5806884BDC7BDDF91CF911F910895E8
:1005100084B5806284BDC8BDF7CF809180008068BB
:1005200080938000D0938900C0938800EDCF8091A4
:10053000B00080688093B000C093B300E5CF809195
:10054000B00080628093B000C093B400DDCF3FB7AD
:10055000F8948091D2019091D301A091D401B091EF
:10056000D50126B5A89B05C02F3F19F00196A11D06
:10057000B11D3FBFBA2FA92F982F8827BC01CD01ED
:10058000620F711D811D911D42E0660F771F881F4C
:10059000991F4A95D1F708958F929F92AF92BF927B
:1005A000CF92DF92EF92FF920E94A7020E94680B07
:1005B0006B017C0120914C0130914D0140914E0125
:1005C00050914F010E94850C20E034E244E759E449
:1005D0000E94F20C4B015C012FE632E143E85AE342
:1005E0000E94610B87FD40C082E00E94C201892BFE
:1005F000D9F120914401309145014091460150913B
:100600004701609148017091490180914A019091A0
:100610004B01A1E00E94040E209344013093450158
:1006200040934601509347016093480170934901FC
:1006300080934A0190934B01A50194016CE779EDF9
:1006400080EA9EE30E94F20C6093D6017093D7017A
:100650008093D8019093D901C0924C01D0924D0162
:10066000E0924E01F0924F01FF90EF90DF90CF901B
:10067000BF90AF909F908F9008958F929F92AF926E
:10068000BF92CF92DF92EF92FF920E94A7020E9448
:10069000680B6B017C012091580130915901409108
:1006A0005A0150915B010E94850C20E034E244E73E
:1006B00059E40E94F20C4B015C012FE632E143E861
:1006C0005AE30E94610B87FD40C083E00E94C20193
:1006D000892BD9F120915001309151014091520163
:1006E00050915301609154017091550180915601D0
:1006F00090915701A1E00E94040E20935001309385
:1007000051014093520150935301609354017093EF
:1007100055018093560190935701A50194016CE710
:1007200079ED80EA9EE30E94F20C6093DA01709307
:10073000DB018093DC019093DD01C0925801D092DF
:100740005901E0925A01F0925B01FF90EF90DF9027
:10075000CF90BF90AF909F908F9008950895209173
:100760008301260F3327331F21323105ECF420910A
:10077000A701FC0190E080E0243069F082E0089558
:10078000A09183012191AC014D595E4FA40FB52F6B
:10079000B11D2C930196861798F380918301680F01
:1007A0006093830180E0089581E0089508958FEFBC
:1007B0009FEF08958FEF9FEF089580915C0190E087
:1007C0009195819591090895CF93DF93CB01EA012B
:1007D000642F0E94AF03CE01DF91CF910895CF9394
:1007E000DF931F92CDB7DEB7698361E0CE0101963A
:1007F0000E94AF0381E090E00F90DF91CF910895C8
:1008000090E080E008958F929F92AF92BF92CF9236
:10081000DF92EF92FF920F931F93CF93DF93EC0140
:100820004A015B016801790120E030E040E85FEBBC
:10083000CB01B4010E94610B87FDB5C020E030E020
:1008400040E85FE3C501B4010E94D80D20E030E02C
:1008500040E85FEB18160CF442C0C701B8010E94D3
:10086000610B87FD1CC020E030E040E85FE3C7017A
:10087000B8010E94D80D18160CF4B0C020E030E08A
:10088000A901C501B4010E94D80D1816D4F120E0C9
:1008900030E04FE753E4C501B401905838C0C12C93
:1008A000D12C60E8E62E6FEBF62EE8CFC12CD12CD0
:1008B00030E8E32E3FEBF32E46015701E8CFC701A6
:1008C000B60190583AC060E088810E94EB0161E077
:1008D00049C060E08B2D0E94EB0161E055C0C7016B
:1008E000B8010E94610B87FF80C0C12CD12C50E859
:1008F000E52E5FEBF52E812C912C40E8A42E4FE3E2
:10090000B42E20E030E04FE753E4C501B4010E946B
:10091000C70B0E94640D8C810E944A0220E030E0E7
:10092000A901C701B6010E94D80D20E030E04FE7D1
:1009300053E4181624F6C701B6010E94C70B0E94A3
:10094000640D8D810E944A0220E030E0A901C501BA
:10095000B4010E94D80D87FDB6CF61E088810E9466
:10096000EB0160E089810E94EB01BA8020E030E079
:10097000A901C701B6010E94D80D87FDAACF61E089
:100980008B2D0E94EB0160E08B81DF91CF911F9155
:100990000F91FF90EF90DF90CF90BF90AF909F901E
:1009A0008F900C94EB0120E030E040E85FEBC70152
:1009B000B8010E94610B87FD79CF20E030E040E86C
:1009C0005FE3C701B8010E94D80D812C912C90E8FB
:1009D000A92E9FEBB92E18160CF059CFC12CD12C93
:1009E00070E8E72E7FE3F72E49CF20E030E040E8C3
:1009F0005FE3C701B8010E94D80D18160CF07BCF39
:100A0000C12CD12C20E8E22E2FE3F22E4601570113
:100A100078CF8EED91E00E94EA00892BD1F38EED24
:100A200091E00E94EA00892B29F08EED91E00E946E
:100A3000C800F5CF0895FC0101900020E9F7319737
:100A4000AF01481B590BBC018EED91E00C948C005A
:100A50008F929F92AF92BF920F931F93CF93DF938A
:100A6000CDB7DEB7A1970FB6F894DEBF0FBECDBFEE
:100A700019A2423008F44AE08E010F5D1F4F842E08
:100A8000912CB12CA12CA50194010E94E20DE62F1E
:100A9000B901CA01EA30F4F4E05DD801EE938D01AA
:100AA000232B242B252B79F790E080E0109719F069
:100AB000CD010E941B05A1960FB6F894DEBF0FBEB4
:100AC000CDBFDF91CF911F910F91BF90AF909F90BD
:100AD0008F900895E95CE1CF4F925F926F927F9281
:100AE0008F929F92AF92BF92CF92DF92EF92FF923E
:100AF0000F931F93CF936B017C01742EAC019B016C
:100B00000E94DD0D882399F086E191E0CF911F913D
:100B10000F91FF90EF90DF90CF90BF90AF909F909C
:100B20008F907F906F905F904F900C941B054601C3
:100B30005701E894B7F82FEF3FEF4FE75FE7C501A4
:100B4000B4010E94DD0D81110DC02FEF3FEF4FE783
:100B50005FE7C501B4010E94610B18161CF48AE11D
:100B600091E0D4CF2FEF3FEF4FE75FE4C701B6012D
:100B70000E94D80D18161CF48EE191E0C7CF2FEF1C
:100B80003FEF4FE75FECC701B6010E94610B87FDA5
:100B9000F3CF20E030E0A901C701B6010E94610B4C
:100BA00010E000E087FF0AC06DE28EED91E00E9448
:100BB0002C018C01F7FAF094F7F8F094C0E060E0B3
:100BC00070E080E09FE37C1641F020E030E040E2FE
:100BD00051E40E94F20CCF5FF6CFA70196010E946C
:100BE000860C2B013C010E946B0D4B015C014AE01D
:100BF0000E9428057C01E00EF11ECC23C1F1C50145
:100C0000B4010E94660B9B01AC01C301B2010E94BA
:100C1000850C4B015C016EE28EED91E00E942C018F
:100C2000E80EF91EC15018F120E030E040E251E436
:100C3000C501B4010E94C70B2B013C010E946B0D42
:100C40004B01B12CA12C4AE0C501B4010E9428053A
:100C5000E80EF91EC501B4010E94660B9B01AC01B0
:100C6000C301B2010E94850C4B015C01DBCFC701BF
:100C7000CF911F910F91FF90EF90DF90CF90BF9099
:100C8000AF909F908F907F906F905F904F9008955E
:100C90001F93CF93DF9385ED8093BC0080915F011C
:100CA00090916001A0916101B09162010796A11D30
:100CB000B11D23E0B695A795979587952A95D1F70D
:100CC0002091BC0024FD03C01092A70152C04091A6
:100CD0005F01509160016091610170916201452B4B
:100CE000462B472B69F30097A105B10541F025E399
:100CF0002A95F1F700000197A109B109E1CF809190
:100D00005E01C1E0C0935D01882399F1D091B800E4
:100D10001091BA008091BC008A7B8093BC0060E097
:100D200082E10E94EB0160E083E10E94EB011092FE
:100D3000A701C093A9011092A80161E082E10E947D
:100D4000EB0161E083E10E94EB018091B9008E7FAD
:100D50008093B9008091B9008D7F8093B90088E4B9
:100D60008093B80085E48093BC001093BA00D093C0
:100D7000B800DF91CF911F9108951F920F920FB687
:100D80000F9211242F933F934F935F936F937F9311
:100D90008F939F93AF93BF93EF93FF938EED91E06B
:100DA0000E940A01FF91EF91BF91AF919F918F91A6
:100DB0007F916F915F914F913F912F910F900FBE57
:100DC0000F901F9018951F920F920FB60F9211243B
:100DD0002F938F939F93EF93FF93E091EE01F09108
:100DE000EF018081E091F401F091F50182FD1BC0DB
:100DF00090818091F7018F5F8F732091F8018217A6
:100E000041F0E091F701F0E0E252FE4F958F8093C0
:100E1000F701FF91EF919F918F912F910F900FBE4E
:100E20000F901F9018958081F4CF1F920F920FB6EC
:100E30000F9211242F933F938F939F93AF93BF9360
:100E40008091CE019091CF01A091D001B091D101BC
:100E50003091CD0123E0230F2D3758F50196A11DC8
:100E6000B11D2093CD018093CE019093CF01A0932B
:100E7000D001B093D1018091D2019091D301A09182
:100E8000D401B091D5010196A11DB11D8093D2016D
:100E90009093D301A093D401B093D501BF91AF91AA
:100EA0009F918F913F912F910F900FBE0F901F90A8
:100EB000189526E8230F0296A11DB11DD2CF1F92CF
:100EC0000F920FB60F9211242F933F934F935F937E
:100ED0006F937F938F939F93AF93BF93EF93FF9302
:100EE000E0910201F09103010995FF91EF91BF910B
:100EF000AF919F918F917F916F915F914F913F91B2
:100F00002F910F900FBE0F901F9018951F920F9268
:100F10000FB60F9211242F933F934F935F936F93CC
:100F20007F938F939F93AF93BF93EF93FF93E09142
:100F30000001F09101010995FF91EF91BF91AF91EF
:100F40009F918F917F916F915F914F913F912F91E1
:100F50000F900FBE0F901F9018951F920F920FB613
:100F60000F9211242F933F934F935F936F937F932F
:100F70008F939F93AF93BF93EF93FF938091B900AB
:100F8000887F803609F44AC0F0F5883209F4A5C09C
:100F900018F5803109F499C0B8F4882309F4F5C034
:100FA000883009F492C0FF91EF91BF91AF919F916A
:100FB0008F917F916F915F914F913F912F910F9002
:100FC0000FBE0F901F901895883109F486C08032AB
:100FD00051F78093A60114C0803409F49BC040F4FB
:100FE0008033B9F38833F9F68093A60185ECAEC05F
:100FF000803509F483C0883509F494C0883499F6A3
:101000000E944806D0CF883909F48AC038F588375D
:1010100029F050F4883611F0803729F683E0809368
:10102000A7011092A50155C0883809F479C080390C
:1010300019F0803809F0B7CF8091A501803208F00F
:101040006FC0E091A50181E08E0F8093A501809192
:10105000BB00F0E0EB57FE4F80833BC0803B39F094
:10106000D0F4803A09F477C0883A09F09CCF84E044
:101070008093A7011092840110928301F0E0E0E0D8
:1010800009958091830181110FC081E080938301D4
:101090001092630109C0803C09F4A8CF883C09F490
:1010A000A5CF883B09F07FCFE091840181E08E0FCE
:1010B00080938401F0E0ED59FE4F80818093BB0066
:1010C000909184018091830129C08091CC0180930B
:1010D000BB0085EC8093BC0066CF9091CB018091E2
:1010E000CA01981758F5E091CB0181E08E0F8093EB
:1010F000CB01F0E0E655FE4F8081E9CFE091CB01D6
:1011000081E08E0F8093CB018091BB00F0E0E6552B
:10111000FE4F80839091CB018091CA019817C8F24D
:1011200085E8D8CFE091CB0181E08E0F8093CB0191
:101130008091BB00F0E0E655FE4F80838091A901CD
:1011400081115ECF81E08093A80184EA8093BC0086
:101150001092A70128CF85EC8093BC001092A701C4
:101160008091A501803230F4E091A501F0E0EB57C9
:10117000FE4F10826091A50170E085E891E0F0E0FB
:10118000E0E009951092A5010ECF1092A60138CF8C
:10119000EEEDF1E01382128288EE93E0A0E0B0E081
:1011A00084839583A683B78388E091E091838083CD
:1011B00085EC90E09587848784EC90E0978786871C
:1011C00080EC90E0918B808B81EC90E0938B828B14
:1011D00082EC90E0958B848B86EC90E0978B868BED
:1011E000118E128E138E148E0895CF93DF93CDB788
:1011F000DEB76A970FB6F894DEBF0FBECDBF789406
:1012000084B5826084BD84B5816084BD85B582600B
:1012100085BD85B5816085BD80916E0081608093BC
:101220006E00109281008091810082608093810025
:101230008091810081608093810080918000816035
:10124000809380008091B10084608093B100809190
:10125000B00081608093B00080917A0084608093B8
:101260007A0080917A00826080937A0080917A007F
:10127000816080937A0080917A00806880937A0000
:101280001092C10060E082E00E94190260E083E0F9
:101290000E94190261E08DE00E9419028CEC92E03C
:1012A0009093010180930001809169008360809395
:1012B0006900E89A8DE393E0909303018093020123
:1012C000809169008C6080936900E99AE091EE0159
:1012D000F091EF0182E08083E091EA01F091EB016F
:1012E0001082E091EC01F091ED018FEC808310927F
:1012F000F601E091F201F091F30196E09083E09124
:10130000F001F091F101808180618083E091F00132
:10131000F091F101808188608083E091F001F0918B
:10132000F101808180688083E091F001F091F1010A
:1013300080818F7D8083998387E08A8389E08B8396
:1013400088E08C838AE08D838BE08E8361E086E089
:101350000E94190261E087E00E94190261E089E0C1
:101360000E94190261E087E00E94190261E08AE0B0
:101370000E94190261E08BE00E9419021F86188A00
:10138000198A1A8A412C512C32010E9409050E94A7
:10139000A7027B018C0120E030E0A9016F83F88671
:1013A00089871A872B873C874D875E871B8A1C8A13
:1013B0001D8A1E8AE090DA01F090DB010091DC01C9
:1013C0001091DD01EF8AF88E098F1A8F2091D601D6
:1013D0003091D7014091D8015091D90160E070E07F
:1013E00080E791E40E94850C6B017C0120E030E0F5
:1013F00040E85FE3C301B2010E94D80D18164CF417
:1014000020E030E0A901C701B6010E94D80D1816EE
:101410001CF120E030E040E85FEBC301B2010E9424
:10142000610B87FF09C020E030E0A901C701B601C8
:101430000E94610B87FD10C0A70196016B897C8912
:101440008D899E890E94C70B9B01AC01C301B2012B
:101450000E94860C2B013C0126E636E646E65EE35A
:10146000C701B6010E94C70B6B017C012CEE31E570
:1014700048EB5EE3C301B2010E94C70B9B01AC01C4
:10148000C701B6010E94860C4B015C012F89388D83
:10149000498D5A8D60E070E080E791E40E94850CF0
:1014A0006B017C0120E030E040E85FE36F857889E4
:1014B00089899A890E94D80D18164CF420E030E0F2
:1014C000A901C701B6010E94D80D18164CF120E001
:1014D00030E040E85FEB6F85788989899A890E94BE
:1014E000610B87FF09C020E030E0A901C701B60108
:1014F0000E94610B87FD14C0A70196016B897C894E
:101500008D899E890E94C70B9B01AC016F857889EC
:1015100089899A890E94860C6F87788B898B9A8B30
:1015200026E636E646E65EE3C701B6010E94C70B33
:101530006B017C012CEE31E548EB5EE36F85788929
:1015400089899A890E94C70B9B01AC01C701B6012A
:101550000E94860C6B017C0120E030E0A901C501EE
:10156000B4010E94D80D18161CF0812C912C540146
:1015700020E030E0A901C701B6010E94D80D18167D
:101580001CF0C12CD12C7601F7FAF094F7F8F09406
:1015900082E291E00E941B0542E0C501B4010E9475
:1015A0006C0587E291E00E941B0589E291E00E94B0
:1015B0001B0542E0C701B6010E946C0587E291E07D
:1015C0000E941B0597018601B501A401CE01019679
:1015D0000E9403048EED91E00E94EA00892BE1F065
:1015E0000E94090560E089810E94190260E08A81F9
:1015F0000E94190260E08B810E94190260E08C81D8
:101600000E94190200E010E09801B901A801CE0182
:1016100001960E940304B9CE8EE291E00E941B0560
:101620006091D6017091D7018091D8019091D90134
:1016300042E00E946C056CE28EED91E00E942C016C
:1016400087E391E00E941B056091DA017091DB0154
:101650008091DC019091DD0142E00E946C0580E404
:1016600091E00E941B050E94A7029B01AC0160E073
:1016700070E080E090E0AF80B884C984DA84EB84C5
:10168000FC840D851E850E94100E0E949A0D20E09C
:1016900034E244E759E40E94F20C6B8B7C8B8D8B17
:1016A0009E8B0E94A7027B018C0120E030E0A90103
:1016B0006F83F88689871A872B873C874D875E87DB
:1016C00079CE0E94A30B08F481E00895E89409C044
:1016D00097FB3EF490958095709561957F4F8F4F65
:1016E0009F4F9923A9F0F92F96E9BB279395F6957B
:1016F000879577956795B795F111F8CFFAF4BB0FF9
:1017000011F460FF1BC06F5F7F4F8F4F9F4F16C05C
:10171000882311F096E911C0772321F09EE8872FE6
:10172000762F05C0662371F096E8862F70E060E0A2
:101730002AF09A95660F771F881FDAF7880F96951B
:10174000879597F90895990F0008550FAA0BE0E8BF
:10175000FEEF16161706E807F907C0F01216130673
:10176000E407F50798F0621B730B840B950B39F4B3
:101770000A2661F0232B242B252B21F408950A2619
:1017800009F4A140A6958FEF811D811D08950E9447
:10179000DA0B0C944B0C0E943D0C38F00E94440C68
:1017A00020F0952311F00C94340C0C943A0C112475
:1017B0000C947F0C0E945C0C70F3959FC1F3950F05
:1017C00050E0551F629FF001729FBB27F00DB11DC5
:1017D000639FAA27F00DB11DAA1F649F6627B00D55
:1017E000A11D661F829F2227B00DA11D621F739F3E
:1017F000B00DA11D621F839FA00D611D221F749F4C
:101800003327A00D611D231F849F600D211D822F92
:10181000762F6A2F11249F5750409AF0F1F08823B9
:101820004AF0EE0FFF1FBB1F661F771F881F9150E6
:101830005040A9F79E3F510580F00C94340C0C9455
:101840007F0C5F3FE4F3983ED4F3869577956795D8
:10185000B795F795E7959F5FC1F7FE2B880F911D10
:101860009695879597F9089597F99F6780E870E0B6
:1018700060E008959FEF80EC089500240A94161606
:10188000170618060906089500240A94121613066E
:10189000140605060895092E0394000C11F48823FC
:1018A00052F0BB0F40F4BF2B11F460FF04C06F5F18
:1018B0007F4F8F4F9F4F089557FD9058440F551FEE
:1018C00059F05F3F71F04795880F97FB991F61F0C2
:1018D0009F3F79F087950895121613061406551F39
:1018E000F2CF4695F1DF08C0161617061806991FA5
:1018F000F1CF86957105610508940895E894BB279A
:1019000066277727CB0197F908955058BB27AA2758
:101910000E949D0C0C944B0C0E943D0C38F00E94D0
:10192000440C20F039F49F3F19F426F40C943A0C3F
:101930000EF4E095E7FB0C94340CE92F0E945C0C4C
:1019400058F3BA17620773078407950720F079F4F4
:10195000A6F50C947E0C0EF4E0950B2EBA2FA02D5C
:101960000B01B90190010C01CA01A0011124FF274C
:10197000591B99F0593F50F4503E68F11A16F04047
:10198000A22F232F342F4427585FF3CF4695379546
:101990002795A795F0405395C9F77EF41F16BA0B0B
:1019A000620B730B840BBAF09150A1F0FF0FBB1FB9
:1019B000661F771F881FC2F70EC0BA0F621F731F02
:1019C000841F48F4879577956795B795F7959E3F5F
:1019D00008F0B0CF9395880F08F09927EE0F9795F0
:1019E000879508950E94060D0C944B0C0E94440CA0
:1019F00058F00E943D0C40F029F45F3F29F00C9410
:101A0000340C51110C947F0C0C943A0C0E945C0C19
:101A100068F39923B1F3552391F3951B550BBB271D
:101A2000AA2762177307840738F09F5F5F4F220F62
:101A3000331F441FAA1FA9F335D00E2E3AF0E0E859
:101A400032D091505040E695001CCAF72BD0FE2FA3
:101A500029D0660F771F881FBB1F26173707480737
:101A6000AB07B0E809F0BB0B802DBF01FF279358EF
:101A70005F4F3AF09E3F510578F00C94340C0C9473
:101A80007F0C5F3FE4F3983ED4F386957795679596
:101A9000B795F7959F5FC9F7880F911D9695879524
:101AA00097F90895E1E0660F771F881FBB1F621743
:101AB00073078407BA0720F0621B730B840BBA0B01
:101AC000EE1F88F7E09508950E946B0D6894B111A0
:101AD0000C947F0C08950E94640C88F09F5798F036
:101AE000B92F9927B751B0F0E1F0660F771F881F23
:101AF000991F1AF0BA95C9F714C0B13091F00E943D
:101B00007E0CB1E008950C947E0C672F782F882707
:101B1000B85F39F0B93FCCF3869577956795B39563
:101B2000D9F73EF490958095709561957F4F8F4FD2
:101B30009F4F0895E894F92F96EBFF2381F012163A
:101B400013061406440B9395F6958795779567953C
:101B500057954040FF23B9F71BC099270895882364
:101B600051F49850D2F7872B762F652F542F432F9F
:101B7000322F20E0B1F3121613061406440B88230B
:101B80003AF09A95440F551F661F771F881FCAF7B2
:101B900055234AF4440F551F11F460FF04C06F5FD2
:101BA0007F4F8F4F9F4F880F9695879597F9089590
:101BB0000E94A30B08F48FEF08950E94A30B880BDB
:101BC000990B0895A1E21A2EAA1BBB1BFD010DC0A3
:101BD000AA1FBB1FEE1FFF1FA217B307E407F507DD
:101BE00020F0A21BB30BE40BF50B661F771F881FB9
:101BF000991F1A9469F760957095809590959B014F
:101C0000AC01BD01CF0108950024A7FD00942A0F67
:101C1000301D401D501D601D701D801D901D0895BC
:101C20002A193B094C095D096E097F09800B910B4C
:101C30000895EE0FFF1F0590F491E02D0994F8949C
:101C4000FFCFAE03AE03000000002C018C00B900F2
:101C50007901EA00C800DC006E616E00696E660002
:101C60006F76660063613A20002C0063623A2000C0
:101C70005370656564413A20005370656564423A6B
:061C800020000D0A000027
:107E0000112484B714BE81FFF0D085E080938100F7
:107E100082E08093C00088E18093C10086E0809377
:107E2000C20080E18093C4008EE0C9D0259A86E02C
:107E300020E33CEF91E0309385002093840096BBD3
:107E4000B09BFECF1D9AA8958150A9F7CC24DD24C4
:107E500088248394B5E0AB2EA1E19A2EF3E0BF2EE7
:107E6000A2D0813461F49FD0082FAFD0023811F036
:107E7000013811F484E001C083E08DD089C08234E0
:107E800011F484E103C0853419F485E0A6D080C0E4
:107E9000853579F488D0E82EFF2485D0082F10E0AE
:107EA000102F00270E291F29000F111F8ED06801E7
:107EB0006FC0863521F484E090D080E0DECF843638
:107EC00009F040C070D06FD0082F6DD080E0C81688
:107ED00080E7D80618F4F601B7BEE895C0E0D1E017
:107EE00062D089930C17E1F7F0E0CF16F0E7DF06D8
:107EF00018F0F601B7BEE89568D007B600FCFDCFD4
:107F0000A601A0E0B1E02C9130E011968C91119780
:107F100090E0982F8827822B932B1296FA010C0160
:107F200087BEE89511244E5F5F4FF1E0A038BF0790
:107F300051F7F601A7BEE89507B600FCFDCF97BE46
:107F4000E89526C08437B1F42ED02DD0F82E2BD052
:107F50003CD0F601EF2C8F010F5F1F4F84911BD097
:107F6000EA94F801C1F70894C11CD11CFA94CF0C13
:107F7000D11C0EC0853739F428D08EE10CD085E9AC
:107F80000AD08FE07ACF813511F488E018D01DD067
:107F900080E101D065CF982F8091C00085FFFCCF94
:107FA0009093C60008958091C00087FFFCCF809118
:107FB000C00084FD01C0A8958091C6000895E0E648
:107FC000F0E098E1908380830895EDDF803219F02E
:107FD00088E0F5DFFFCF84E1DECF1F93182FE3DFCA
:107FE0001150E9F7F2DF1F91089580E0E8DFEE27F6
:047FF000FF270994CA
:027FFE00040479
:00000001FF
