:100000000C9428010C9459010C9459010C94590139
:100010000C9459010C9459010C9459010C945901F8
:100020000C9459010C9459010C9459010C945901E8
:100030000C9459010C9459010C9459010C945901D8
:100040000C9459010C9459010C9459010C945901C8
:100050000C9459010C9459010C9459010C944404CA
:100060000C9459010C94B8040C948E040C9459010E
:100070000C9459010C9459010C9459010C94590198
:100080000C9459010C9459010C9459010C94590188
:100090000C9459010C9459010C9459010C94590178
:1000A0000C9459010C9459010C9459010C94590168
:1000B0000C9459010C9459010C9459010C94590158
:1000C0000C9459010C9459010C9459010C94590148
:1000D0000C9459010C9459010C9459010C94590138
:1000E0000C9459010C94C5010C948C010C94AA0138
:1000F0000C94C1010C941F020C94AD010C94A2014C
:100100000C949E010C9441020C94C6020C94A80617
:100110000C9410020C94B3010C94D3010C94CB01F9
:100120000C94D9010C9479020C9487010C94CF01A2
:100130000C94DD010C94E3010C94A6010C94B7011E
:100140000C94BD010C943302000021002400270010
:100150002A002D00300033000101000004010701D6
:100160000A0100002200250028002B002E0031008B
:10017000340002010000050108010B010505050519
:10018000070508080808020202020A0A080804040F
:10019000040401010101010101010303030303033D
:1001A0000303040707070C0C0C0C0C0C0C0C0202CC
:1001B000020206060606060606060B0B0B0B0B0BC9
:1001C0000B0B010210202008081020401020408056
:1001D000020102010804020101020408102040800B
:1001E0008040201008040201800402018040201099
:1001F00008040201080402010102040810204080E2
:10020000010204081020408000000A0B02090C0DB6
:100210000E080703040100000000000000000000B9
:1002200000000000000000000000000000000000CE
:10023000000000001211100000000000000000008B
:100240000000000000000000000000000000A80600
:1002500011241FBECFEFD1E2DEBFCDBF00E00CBF47
:1002600022E0AEE3B2E001C01D92A43FB207E1F785
:1002700012E0A0E0B2E0EAE7F2E100E00BBF02C06A
:1002800007900D92AE33B107D9F711E0C8E2D1E083
:1002900000E006C021970109802FFE010E9433096A
:1002A000C732D10780E00807A9F70E94EE040C943A
:1002B0003B090C940000382FE5E1F2E08491EFEC6B
:1002C000F1E02491E9E8F1E09491992309F435C033
:1002D000882311F181508231F8F4E82FF0E088276B
:1002E000EB58FE4F8F4F0C943309A601AA018701EA
:1002F0009E01A2018C01AD01B301B701BD01C10195
:10030000C501CB01CF018C01D301D901DD01809161
:1003100080008F7780938000E92FF0E0EE0FFF1FC1
:10032000EE59FE4FA591B4918FB7F894EC9131112D
:1003300048C020952E232C938FBF08958091800074
:100340008F7DE8CF80918000877FE4CF84B58F7761
:1003500084BDE2CF84B58F7DFBCF8091B0008F77D5
:100360008093B000D9CF8091B0008F7DF9CF80917C
:1003700090008F7780939000CFCF809190008F7DF9
:10038000F9CF80919000877FF5CF8091A0008F7783
:100390008093A000C1CF8091A0008F7DF9CF809184
:1003A000A000877FF5CF809120018F778093200177
:1003B000B3CF809120018F7DF9CF80912001877F7D
:1003C000F5CF2E2BB8CFAF92BF92CF92DF92EF92A4
:1003D000FF920F931F93CF93DF936C017B018B01EF
:1003E000040F151FEB015E01AE18BF08C017D1073F
:1003F00059F06991D601ED91FC910190F081E02DC9
:10040000C6011995892B79F7C501DF91CF911F910D
:100410000F91FF90EF90DF90CF90BF90AF90089535
:10042000FC01538D448D252F30E0842F90E0821BFA
:10043000930B541710F0CF96089501970895FC017F
:10044000918D828D981761F0A28DAE0FBF2FB11DD7
:100450005D968C91928D9F5F9F73928F90E008952F
:100460008FEF9FEF0895FC01918D828D981731F0E9
:10047000828DE80FF11D858D90E008958FEF9FEF3D
:100480000895FC01918D228D892F90E0805C9F4F13
:10049000821B91098F739927089587E592E00E9446
:1004A000410221E0892B09F420E0822F0895FC010C
:1004B000A48DA80FB92FB11DA35ABF4F2C91848DC5
:1004C00090E001968F739927848FA689B7892C9322
:1004D000A089B1898C91837080648C93938D848D75
:1004E000981306C00288F389E02D80818F7D808378
:1004F0000895EF92FF920F931F93CF93DF93EC0138
:1005000081E0888F9B8D8C8D98131AC0E889F989BA
:10051000808185FF15C09FB7F894EE89FF896083BD
:10052000E889F98980818370806480839FBF81E03E
:1005300090E0DF91CF911F910F91FF90EF90089580
:10054000F62E0B8D10E00F5F1F4F0F731127E02E5B
:100550008C8D8E110CC00FB607FCFACFE889F98993
:10056000808185FFF5CFCE010E945702F1CFEB8D40
:10057000EC0FFD2FF11DE35AFF4FF0829FB7F89467
:100580000B8FEA89FB8980818062CFCFCF93DF9385
:10059000EC01888D8823B9F0AA89BB89E889F9899B
:1005A0008C9185FD03C0808186FD0DC00FB607FCD0
:1005B000F7CF8C9185FFF2CF808185FFEDCFCE0103
:1005C0000E945702E9CFDF91CF91089580E090E03B
:1005D000892B29F00E944D0281110E94000080E0C9
:1005E00090E0892B49F080E090E0892B29F00E946F
:1005F000000081110E94000080E090E0892B49F00A
:1006000080E090E0892B29F00E94000081110E9477
:10061000000080E090E0892B49F080E090E0892B99
:1006200029F00E94000081110C9400000895FC0143
:1006300001900020E9F73197AF01481B590BBC012D
:1006400087E592E00C94E3018F929F92AF92BF9264
:100650000F931F93CF93DF93CDB7DEB7A1970FB65C
:10066000F894DEBF0FBECDBF19A2423008F44AE0B5
:100670008E010F5D1F4F842E912CB12CA12CA50152
:1006800094010E941109E62FB901CA01EA30F4F47D
:10069000E05DD801EE938D01232B242B252B79F7D8
:1006A00090E080E0109719F0CD010E941703A19609
:1006B0000FB6F894DEBF0FBECDBFDF91CF911F9173
:1006C0000F91BF90AF909F908F900895E95CE1CF1C
:1006D0004F925F926F927F928F929F92AF92BF9252
:1006E000CF92DF92EF92FF920F931F93CF936B0104
:1006F0007C01742EAC019B010E940C09882399F0A7
:1007000082E192E0CF911F910F91FF90EF90DF90E7
:10071000CF90BF90AF909F908F907F906F905F90A1
:100720004F900C94170346015701E894B7F82FEF48
:100730003FEF4FE75FE7C501B4010E940C0981114B
:100740000DC02FEF3FEF4FE75FE7C501B4010E94F7
:10075000D50618161CF486E192E0D4CF2FEF3FEFB8
:100760004FE75FE4C701B6010E94070918161CF4A1
:100770008AE192E0C7CF2FEF3FEF4FE75FECC70171
:10078000B6010E94D50687FDF3CF20E030E0A90135
:10079000C701B6010E94D50610E000E087FF0AC03D
:1007A0006DE287E592E00E9479028C01F7FAF094FD
:1007B000F7F8F094C0E060E070E080E09FE37C1622
:1007C00041F020E030E040E251E40E946608CF5F53
:1007D000F6CFA70196010E94FA072B013C010E9467
:1007E000D8084B015C014AE00E9424037C01E00E22
:1007F000F11ECC23C1F1C501B4010E94DA069B01B0
:10080000AC01C301B2010E94F9074B015C016EE229
:1008100087E592E00E947902E80EF91EC15018F1B6
:1008200020E030E040E251E4C501B4010E943B0702
:100830002B013C010E94D8084B01B12CA12C4AE0AD
:10084000C501B4010E942403E80EF91EC501B401DC
:100850000E94DA069B01AC01C301B2010E94F907B4
:100860004B015C01DBCFC701CF911F910F91FF902E
:10087000EF90DF90CF90BF90AF909F908F907F9040
:100880006F905F904F9008951F920F920FB60F9246
:1008900011242F933F938F939F93AF93BF93809196
:1008A000530290915402A0915502B091560230919A
:1008B000520223E0230F2D3758F50196A11DB11DDB
:1008C000209352028093530290935402A0935502B6
:1008D000B093560280914E0290914F02A091500227
:1008E000B09151020196A11DB11D80934E029093CB
:1008F0004F02A0935002B0935102BF91AF919F91CC
:100900008F913F912F910F900FBE0F901F901895D0
:1009100026E8230F0296A11DB11DD2CF1F920F9280
:100920000FB60F9211240BB60F922F933F934F9354
:100930005F936F937F938F939F93AF93BF93EF9347
:10094000FF9387E592E00E945702FF91EF91BF91DC
:10095000AF919F918F917F916F915F914F913F9157
:100960002F910F900BBE0F900FBE0F901F901895F8
:100970001F920F920FB60F9211240BB60F922F9366
:100980008F939F93EF93FF93E0916702F09168023A
:100990008081E0916D02F0916E0282FD1DC0908118
:1009A000809170028F5F8F7320917102821741F0E6
:1009B000E0917002F0E0E95AFD4F958F809370024C
:1009C000FF91EF919F918F912F910F900BBE0F9000
:1009D0000FBE0F901F9018958081F2CFCF93DF93B9
:1009E000CDB7DEB760970FB6F894DEBF0FBECDBFB0
:1009F000789484B5826084BD84B5816084BD85B5FA
:100A0000826085BD85B5816085BD80916E00816005
:100A100080936E00109281008091810082608093AB
:100A200081008091810081608093810080918000AD
:100A30008160809380008091B10084608093B100D8
:100A40008091B00081608093B000809191008260BD
:100A500080939100809191008160809391008091BA
:100A600090008160809390008091A10082608093CB
:100A7000A1008091A10081608093A1008091A000DD
:100A800081608093A0008091210182608093210188
:100A900080912101816080932101809120018160FA
:100AA0008093200180917A00846080937A00809105
:100AB0007A00826080937A0080917A0081608093CE
:100AC0007A0080917A00806880937A001092C10049
:100AD000E0916702F091680282E08083E091630216
:100AE000F09164021082E0916502F09166028FEC51
:100AF000808310926F02E0916B02F0916C0286E0AD
:100B00008083E0916902F0916A0280818061808334
:100B1000E0916902F0916A02808188608083E091AF
:100B20006902F0916A02808180688083E0916902A5
:100B3000F0916A0280818F7D8083EFECF1E0249157
:100B4000E9E8F1E08491882399F090E0880F991FFB
:100B5000FC01E85BFE4FA591B491FC01EE59FE4FFC
:100B6000859194918FB7F894EC91E22BEC938FBF21
:100B700080E00E945B0180E1B82ECE0101967C01ED
:100B80006E0191E1C90ED11C87E592E00E944102FD
:100B9000892BD1F381E00E945B01F7018B2D11922B
:100BA0008A95E9F787012FB7F894809153029091C5
:100BB0005402A0915502B09156022FBF80935F025C
:100BC00090936002A0936102B093620287E592E085
:100BD0000E941F0297FFB4C02FB7F8948091530270
:100BE00090915402A0915502B09156022FBF4091AE
:100BF0005F02509160026091610270916202841BF9
:100C0000950BA60BB70B40915B0250915C02609173
:100C10005D0270915E0284179507A607B707B0F2D0
:100C200089819A81AB81BC8180933E0290933F027F
:100C3000A0934002B09341028D819E81AF81B8851F
:100C40008093420290934302A0934402B0934502E2
:100C500089859A85AB85BC8580934602909347022F
:100C6000A0934802B09349028D859E85AF85B889CF
:100C700080934A0290934B02A0934C02B0934D0292
:100C80008EE192E00E94170360913E0270913F0254
:100C9000809140029091410242E00E94680383E209
:100CA00092E00E94170385E292E00E941703609190
:100CB000420270914302809144029091450242E0C9
:100CC0000E94680383E292E00E9417038AE292E0A6
:100CD0000E9417036091460270914702809148027A
:100CE0009091490242E00E94680383E292E00E94F0
:100CF00017038FE292E00E94170360914A027091FD
:100D00004B0280914C0290914D0242E00E94680398
:100D10008BE392E00E94170387E592E00E94410274
:100D2000892B59F087E592E00E944102892B29F036
:100D300087E592E00E941F02F5CF0E94E60224CFD1
:100D4000F80181938F01EC15FD0509F02CCF68CFD8
:100D5000E7E5F2E01382128288EE93E0A0E0B0E0D3
:100D600084839583A683B78384E092E09183808314
:100D700085EC90E09587848784EC90E09787868760
:100D800080EC90E0918B808B81EC90E0938B828B58
:100D900082EC90E0958B848B86EC90E0978B868B31
:100DA000118E128E138E148E08950E94170708F468
:100DB00081E00895E89409C097FB3EF490958095F2
:100DC000709561957F4F8F4F9F4F9923A9F0F92F11
:100DD00096E9BB279395F695879577956795B7958F
:100DE000F111F8CFFAF4BB0F11F460FF1BC06F5F75
:100DF0007F4F8F4F9F4F16C0882311F096E911C087
:100E0000772321F09EE8872F762F05C0662371F0A7
:100E100096E8862F70E060E02AF09A95660F771FBB
:100E2000881FDAF7880F9695879597F90895990F97
:100E30000008550FAA0BE0E8FEEF16161706E807A4
:100E4000F907C0F012161306E407F50798F0621BC5
:100E5000730B840B950B39F40A2661F0232B242B9A
:100E6000252B21F408950A2609F4A140A6958FEFB9
:100E7000811D811D08950E944E070C94BF070E949A
:100E8000B10738F00E94B80720F0952311F00C94B8
:100E9000A8070C94AE0711240C94F3070E94D00706
:100EA00070F3959FC1F3950F50E0551F629FF001BD
:100EB000729FBB27F00DB11D639FAA27F00DB11DD6
:100EC000AA1F649F6627B00DA11D661F829F22275F
:100ED000B00DA11D621F739FB00DA11D621F839FE6
:100EE000A00D611D221F749F3327A00D611D231FBC
:100EF000849F600D211D822F762F6A2F11249F570A
:100F000050409AF0F1F088234AF0EE0FFF1FBB1F0C
:100F1000661F771F881F91505040A9F79E3F5105CB
:100F200080F00C94A8070C94F3075F3FE4F3983E1D
:100F3000D4F3869577956795B795F795E7959F5F75
:100F4000C1F7FE2B880F911D9695879597F9089507
:100F500097F99F6780E870E060E008959FEF80EC6C
:100F6000089500240A94161617061806090608950F
:100F700000240A9412161306140605060895092E75
:100F80000394000C11F4882352F0BB0F40F4BF2BE4
:100F900011F460FF04C06F5F7F4F8F4F9F4F089524
:100FA00057FD9058440F551F59F05F3F71F047951A
:100FB000880F97FB991F61F09F3F79F087950895FF
:100FC000121613061406551FF2CF4695F1DF08C01E
:100FD000161617061806991FF1CF8695710561053B
:100FE00008940895E894BB2766277727CB0197F9E3
:100FF00008955058BB27AA270E9411080C94BF07D8
:101000000E94B10738F00E94B80720F039F49F3FE2
:1010100019F426F40C94AE070EF4E095E7FB0C945B
:10102000A807E92F0E94D00758F3BA176207730781
:101030008407950720F079F4A6F50C94F2070EF4D6
:10104000E0950B2EBA2FA02D0B01B90190010C01D8
:10105000CA01A0011124FF27591B99F0593F50F4F0
:10106000503E68F11A16F040A22F232F342F442748
:10107000585FF3CF469537952795A795F040539540
:10108000C9F77EF41F16BA0B620B730B840BBAF010
:101090009150A1F0FF0FBB1F661F771F881FC2F77B
:1010A0000EC0BA0F621F731F841F48F4879577958F
:1010B0006795B795F7959E3F08F0B0CF9395880F49
:1010C00008F09927EE0F9795879508950E947A0862
:1010D0000C94BF070E94B80758F00E94B10740F077
:1010E00029F45F3F29F00C94A80751110C94F307E1
:1010F0000C94AE070E94D00768F39923B1F35523EF
:1011000091F3951B550BBB27AA276217730784071A
:1011100038F09F5F5F4F220F331F441FAA1FA9F3B0
:1011200035D00E2E3AF0E0E832D091505040E6959E
:10113000001CCAF72BD0FE2F29D0660F771F881FFF
:10114000BB1F261737074807AB07B0E809F0BB0BF2
:10115000802DBF01FF2793585F4F3AF09E3F510506
:1011600078F00C94A8070C94F3075F3FE4F3983EE3
:10117000D4F3869577956795B795F7959F5FC9F7EF
:10118000880F911D9695879597F90895E1E0660F70
:10119000771F881FBB1F621773078407BA0720F0E9
:1011A000621B730B840BBA0BEE1F88F7E095089552
:1011B0000E94D80788F09F5798F0B92F9927B75108
:1011C000B0F0E1F0660F771F881F991F1AF0BA95EB
:1011D000C9F714C0B13091F00E94F207B1E0089550
:1011E0000C94F207672F782F8827B85F39F0B93F42
:1011F000CCF3869577956795B395D9F73EF490959E
:101200008095709561957F4F8F4F9F4F08950E94F5
:10121000170708F48FEF08950E941707880B990BA2
:101220000895A1E21A2EAA1BBB1BFD010DC0AA1F27
:10123000BB1FEE1FFF1FA217B307E407F50720F03F
:10124000A21BB30BE40BF50B661F771F881F991FBA
:101250001A9469F760957095809590959B01AC0103
:10126000BD01CF010895EE0FFF1F881F8BBF0790B0
:0A127000F691E02D1994F894FFCFD9
:10127A00000000007902E3011002C60241021F02C7
:10128A0033026E616E00696E66006F7666004B709F
:10129A003A20002C004B693A20004B643A20007334
:0E12AA0065745F706F696E743A20000D0A0063
:00000001FF
