:020000040000FA
:100000000C945D000C9447040C9420040C9485001F
:100010000C9485000C9485000C9485000C9485004C
:100020000C9485000C9485000C9485000C9485003C
:100030000C9485000C9485000C9485000C9485002C
:100040000C94D6030C9485000C94A4030C947E03AA
:100050000C9485000C9485000C9485000C9485000C
:100060000C9485000C9485000000000024002700FB
:100070002A0000000000250028002B0004040404CE
:100080000404040402020202020203030303030342
:10009000010204081020408001020408102001021F
:1000A00004081020000000080002010000030407FB
:1000B00000000000000000006E0411241FBECFEFFE
:1000C000D8E0DEBFCDBF11E0A0E0B1E0ECEAFEE099
:1000D00002C005900D92A631B107D9F721E0A6E143
:1000E000B1E001C01D92A23EB207E1F710E0CDE5FC
:1000F000D0E004C02197FE010E944E07CC35D10705
:10010000C9F70E94C0040C9454070C940000AF92ED
:10011000BF92CF92DF92EF92FF920F931F93CF93F4
:10012000DF936C017B018B01040F151FEB015E0156
:10013000AE18BF08C017D10759F06991D601ED91EB
:10014000FC910190F081E02DC6010995892B79F78A
:10015000C501DF91CF911F910F91FF90EF90DF903C
:10016000CF90BF90AF900895FC01538D448D252F03
:1001700030E0842F90E0821B930B541710F0CF9641
:10018000089501970895FC01918D828D981761F073
:10019000A28DAE0FBF2FB11D5D968C91928D9F5F8A
:1001A0009F73928F90E008958FEF9FEF0895FC0169
:1001B000918D828D981731F0828DE80FF11D858D1C
:1001C00090E008958FEF9FEF0895FC01918D228DAF
:1001D000892F90E0805C9F4F821B91098F73992734
:1001E00008958FE391E00E94E50021E0892B09F456
:1001F00020E0822F089580E090E0892B29F00E9472
:10020000F10081110C9400000895FC01A48DA80F49
:10021000B92FB11DA35ABF4F2C91848D90E0019648
:100220008F739927848FA689B7892C93A089B18968
:100230008C91837080648C93938D848D981306C009
:100240000288F389E02D80818F7D80830895EF926D
:10025000FF920F931F93CF93DF93EC0181E0888F80
:100260009B8D8C8D98131AC0E889F989808185FF50
:1002700015C09FB7F894EE89FF896083E889F989F2
:1002800080818370806480839FBF81E090E0DF91F4
:10029000CF911F910F91FF90EF900895F62E0B8D47
:1002A00010E00F5F1F4F0F731127E02E8C8D8E1102
:1002B0000CC00FB607FCFACFE889F989808185FF69
:1002C000F5CFCE010E940501F1CFEB8DEC0FFD2F94
:1002D000F11DE35AFF4FF0829FB7F8940B8FEA8924
:1002E000FB8980818062CFCFCF93DF93EC01888D33
:1002F0008823B9F0AA89BB89E889F9898C9185FDA1
:1003000003C0808186FD0DC00FB607FCF7CF8C912E
:1003100085FFF2CF808185FFEDCFCE010E940501E0
:10032000E9CFDF91CF91089590E0FC01EC55FF4FAC
:100330002491FC01E057FF4F3491FC01E458FF4F3A
:10034000E491EE23C9F0222339F0233001F1A8F41F
:10035000213019F1223029F1F0E0EE0FFF1FEE58A5
:10036000FF4FA591B4918FB7F894EC91611126C01D
:1003700030953E233C938FBF08952730A9F0283055
:10038000C9F0243049F7809180008F7D03C08091AF
:1003900080008F7780938000DFCF84B58F7784BD16
:1003A000DBCF84B58F7DFBCF8091B0008F778093BA
:1003B000B000D2CF8091B0008F7DF9CF3E2BDACF45
:1003C000CF93DF9390E0FC01E057FF4F24918458D6
:1003D0009F4FFC0184918823D1F090E0880F991FF2
:1003E000FC01E859FF4FA591B491FC01EE58FF4F75
:1003F000C591D49161110EC09FB7F8948C91E22FF2
:10040000E0958E238C932881E223E8839FBFDF91C0
:10041000CF9108958FB7F894EC91E22BEC938FBFB6
:10042000F6CF1F93CF93DF93182FEB0161E00E946B
:10043000E001209739F460E0812FDF91CF911F9187
:100440000C949401CF3FD10511F461E0F5CFE12F79
:10045000F0E0EC55FF4FE491E33031F140F4E1304E
:10046000B1F0E230E1F0C038D1057CF7E4CFE730FD
:1004700029F1E83059F1E430B1F7809180008062D1
:1004800080938000D0938B00C0938A0004C084B511
:10049000806884BDC7BDDF91CF911F91089584B559
:1004A000806284BDC8BDF7CF809180008068809352
:1004B0008000D0938900C0938800EDCF8091B00078
:1004C00080688093B000C093B300E5CF8091B00006
:1004D00080628093B000C093B400DDCF3FB7F89442
:1004E00080913B0190913C01A0913D01B0913E0172
:1004F00026B5A89B05C02F3F19F00196A11DB11D7F
:100500003FBFBA2FA92F982F8827BC01CD01620FBA
:10051000711D811D911D42E0660F771F881F991F75
:100520004A95D1F708958F929F92AF92BF92CF9242
:10053000DF92EF92FF920E946E020E9492066B0180
:100540007C0120912201309123014091240150919E
:1005500025010E94AC0520E034E244E759E40E9402
:100560001E064B015C012DEC3CEC4CEC5DE30E9463
:10057000190687FD3BC020911A0130911B01409163
:100580001C0150911D0160911E0170911F0180910D
:10059000200190912101A1E00E94420720931A01BD
:1005A00030931B0140931C0150931D0160931E0169
:1005B00070931F018093200190932101A501940164
:1005C0006CE779ED80EA9EE30E941E0660931601B7
:1005D000709317018093180190931901C092220122
:1005E000D0922301E0922401F0922501FF90EF9038
:1005F000DF90CF90BF90AF909F908F9008958F9293
:100600009F92AF92BF92CF92DF92EF92FF920E94A1
:100610006E020E9492066B017C01209132013091A2
:10062000330140913401509135010E94AC0520E026
:1006300034E244E759E40E941E064B015C012DECB4
:100640003CEC4CEC5DE30E94190687FD3BC0209119
:100650002A0130912B0140912C0150912D01609184
:100660002E0170912F018091300190913101A1E014
:100670000E94420720932A0130932B0140932C01C2
:1006800050932D0160932E0170932F0180933001C0
:1006900090933101A50194016CE779ED80EA9EE326
:1006A0000E941E0660932601709327018093280103
:1006B00090932901C0923201D0923301E09234012B
:1006C000F0923501FF90EF90DF90CF90BF90AF9008
:1006D0009F908F90089508958FE391E00E94E50028
:1006E000892BD1F38FE391E00E94E500892B29F05B
:1006F0008FE391E00E94C300F5CF08951F920F92FF
:100700000FB60F9211242F933F934F935F936F93E4
:100710007F938F939F93AF93BF93EF93FF938FE359
:1007200091E00E940501FF91EF91BF91AF919F91E0
:100730008F917F916F915F914F913F912F910F908A
:100740000FBE0F901F9018951F920F920FB60F9229
:1007500011242F938F939F93EF93FF93E0914F0179
:10076000F09150018081E0915501F091560182FD98
:100770001BC09081809158018F5F8F732091590128
:10078000821741F0E0915801F0E0E15CFE4F958F57
:1007900080935801FF91EF919F918F912F910F902E
:1007A0000FBE0F901F9018958081F4CF1F920F926B
:1007B0000FB60F9211242F933F938F939F93AF9374
:1007C000BF938091370190913801A0913901B09188
:1007D0003A013091360123E0230F2D3758F5019669
:1007E000A11DB11D209336018093370190933801EC
:1007F000A0933901B0933A0180913B0190913C0163
:10080000A0913D01B0913E010196A11DB11D8093C3
:100810003B0190933C01A0933D01B0933E01BF91F9
:10082000AF919F918F913F912F910F900FBE0F909D
:100830001F90189526E8230F0296A11DB11DD2CF57
:100840001F920F920FB60F9211242F933F934F9345
:100850005F936F937F938F939F93AF93BF93EF9328
:10086000FF93E0910201F09103010995FF91EF914F
:10087000BF91AF919F918F917F916F915F914F91B8
:100880003F912F910F900FBE0F901F9018951F92C0
:100890000F920FB60F9211242F933F934F935F93B4
:1008A0006F937F938F939F93AF93BF93EF93FF9338
:1008B000E0910001F09101010995FF91EF91BF9145
:1008C000AF919F918F917F916F915F914F913F91E8
:1008D0002F910F900FBE0F901F901895EFE3F1E04E
:1008E0001382128288EE93E0A0E0B0E084839583C7
:1008F000A683B78388E091E09183808385EC90E0C4
:100900009587848784EC90E09787868780EC90E0D9
:10091000918B808B81EC90E0938B828B82EC90E0CA
:10092000958B848B86EC90E0978B868B118E128E44
:10093000138E148EECEDF1E086E0808387E08183F6
:1009400089E0828388E083838AE084838BE08583E7
:1009500061E086E00E94E00161E087E00E94E00142
:1009600061E089E00E94E00161E087E00E94E0012F
:1009700061E08AE00E94E00161E08BE00C94E0011C
:10098000789484B5826084BD84B5816084BD85B56A
:10099000826085BD85B5816085BD80916E00816076
:1009A00080936E001092810080918100826080931C
:1009B000810080918100816080938100809180001E
:1009C0008160809380008091B10084608093B10049
:1009D0008091B00081608093B00080917A00846043
:1009E00080937A0080917A00826080937A0080916F
:1009F0007A00816080937A0080917A008068809389
:100A00007A001092C10060E082E00E94E00160E0A4
:100A100083E00E94E00183E992E0909301018093DA
:100A2000000180916900836080936900E89A8FEFEC
:100A300092E09093030180930201809169008C60A1
:100A400080936900E99AE0914F01F091500182E0B2
:100A50008083E0914B01F0914C011082E0914D01B7
:100A6000F0914E018FEC808310925701E091530179
:100A7000F091540186E08083E0915101F0915201A0
:100A8000808180618083E0915101F09152018081E9
:100A900088608083E0915101F091520180818068EB
:100AA0008083E0915101F091520180818F7D80839C
:100AB0000E946C0300E010E0C0E08FE391E00E9430
:100AC000E500892BD1F08FE391E00E94C30060E044
:100AD0008091DC010E94E00160E08091DD010E94D4
:100AE000E00160E08091DE010E94E00160E0809121
:100AF000DF010E94E001C1E0E0CFC1110E946C0360
:100B00006FEF70E08091E0010E9411026FEF70E0E2
:100B10008091E1010E94110261E08091DC010E945C
:100B2000940160E08091DD010E94940161E0809178
:100B3000DE010E94940160E08091DF010E94940137
:100B40000115110509F4B8CF0E94F100882309F4BA
:100B5000B3CF0E940000B0CF5058BB27AA270E94F5
:100B6000C4050C9408070E94FA0638F00E94010799
:100B700020F039F49F3F19F426F40C94F7060EF494
:100B8000E095E7FB0C94F106E92F0E94190758F352
:100B9000BA17620773078407950720F079F4A6F562
:100BA0000C943B070EF4E0950B2EBA2FA02D0B01F1
:100BB000B90190010C01CA01A0011124FF27591BA2
:100BC00099F0593F50F4503E68F11A16F040A22FA8
:100BD000232F342F4427585FF3CF46953795279519
:100BE000A795F0405395C9F77EF41F16BA0B620B18
:100BF000730B840BBAF09150A1F0FF0FBB1F661F5F
:100C0000771F881FC2F70EC0BA0F621F731F841FA1
:100C100048F4879577956795B795F7959E3F08F0C7
:100C2000B0CF9395880F08F09927EE0F9795879589
:100C300008950E94CD0608F481E008950E943206CE
:100C40000C9408070E94010758F00E94FA0640F031
:100C500029F45F3F29F00C94F10651110C943C07E4
:100C60000C94F7060E94190768F39923B1F35523F2
:100C700091F3951B550BBB27AA27621773078407AF
:100C800038F09F5F5F4F220F331F441FAA1FA9F345
:100C900035D00E2E3AF0E0E832D091505040E69533
:100CA000001CCAF72BD0FE2F29D0660F771F881F94
:100CB000BB1F261737074807AB07B0E809F0BB0B87
:100CC000802DBF01FF2793585F4F3AF09E3F51059B
:100CD00078F00C94F1060C943C075F3FE4F3983EE7
:100CE000D4F3869577956795B795F7959F5FC9F784
:100CF000880F911D9695879597F90895E1E0660F05
:100D0000771F881FBB1F621773078407BA0720F07D
:100D1000621B730B840BBA0BEE1F88F7E0950895E6
:100D2000E89409C097FB3EF4909580957095619585
:100D30007F4F8F4F9F4F9923A9F0F92F96E9BB273B
:100D40009395F695879577956795B795F111F8CFB7
:100D5000FAF4BB0F11F460FF1BC06F5F7F4F8F4F22
:100D60009F4F16C0882311F096E911C0772321F018
:100D70009EE8872F762F05C0662371F096E8862FB0
:100D800070E060E02AF09A95660F771F881FDAF707
:100D9000880F9695879597F90895990F0008550F34
:100DA000AA0BE0E8FEEF16161706E807F907C0F0F1
:100DB00012161306E407F50798F0621B730B840BF9
:100DC000950B39F40A2661F0232B242B252B21F4D3
:100DD00008950A2609F4A140A6958FEF811D811D73
:100DE000089597F99F6780E870E060E008959FEFAD
:100DF00080EC089500240A941616170618060906B2
:100E0000089500240A941216130614060506089580
:100E1000092E0394000C11F4882352F0BB0F40F408
:100E2000BF2B11F460FF04C06F5F7F4F8F4F9F4F48
:100E3000089557FD9058440F551F59F05F3F71F0CA
:100E40004795880F97FB991F61F09F3F79F0879531
:100E50000895121613061406551FF2CF4695F1DFBA
:100E600008C0161617061806991FF1CF869571054A
:100E7000610508940895E894BB2766277727CB017E
:100E800097F908950024A7FD00942A0F301D401DF6
:100E9000501D601D701D801D901D0895EE0FFF1FD9
:100EA0000590F491E02D0994F894FFCF6B036B0348
:100EB0000000000027018700B4007401E500C300B2
:020EC000D70059
:107E0000112484B714BE81FFF0D085E080938100F7
:107E100082E08093C00088E18093C10086E0809377
:107E2000C20080E18093C4008EE0C9D0259A86E02C
:107E300020E33CEF91E0309385002093840096BBD3
:107E4000B09BFECF1D9AA8958150A9F7CC24DD24C4
:107E500088248394B5E0AB2EA1E19A2EF3E0BF2EE7
:107E6000A2D0813461F49FD0082FAFD0023811F036
:107E7000013811F484E001C083E08DD089C08234E0
:107E800011F484E103C0853419F485E0A6D080C0E4
:107E9000853579F488D0E82EFF2485D0082F10E0AE
:107EA000102F00270E291F29000F111F8ED06801E7
:107EB0006FC0863521F484E090D080E0DECF843638
:107EC00009F040C070D06FD0082F6DD080E0C81688
:107ED00080E7D80618F4F601B7BEE895C0E0D1E017
:107EE00062D089930C17E1F7F0E0CF16F0E7DF06D8
:107EF00018F0F601B7BEE89568D007B600FCFDCFD4
:107F0000A601A0E0B1E02C9130E011968C91119780
:107F100090E0982F8827822B932B1296FA010C0160
:107F200087BEE89511244E5F5F4FF1E0A038BF0790
:107F300051F7F601A7BEE89507B600FCFDCF97BE46
:107F4000E89526C08437B1F42ED02DD0F82E2BD052
:107F50003CD0F601EF2C8F010F5F1F4F84911BD097
:107F6000EA94F801C1F70894C11CD11CFA94CF0C13
:107F7000D11C0EC0853739F428D08EE10CD085E9AC
:107F80000AD08FE07ACF813511F488E018D01DD067
:107F900080E101D065CF982F8091C00085FFFCCF94
:107FA0009093C60008958091C00087FFFCCF809118
:107FB000C00084FD01C0A8958091C6000895E0E648
:107FC000F0E098E1908380830895EDDF803219F02E
:107FD00088E0F5DFFFCF84E1DECF1F93182FE3DFCA
:107FE0001150E9F7F2DF1F91089580E0E8DFEE27F6
:047FF000FF270994CA
:027FFE00040479
:00000001FF
