:020000040000FA
:100000000C9462000C94A6050C947F050C948A0055
:100010000C948A000C948A000C948A000C948A0038
:100020000C948A000C948A000C948A000C948A0028
:100030000C948A000C948A000C948A000C948A0018
:100040000C9435050C948A000C9403050C94DD0483
:100050000C948A000C948A000C948A000C948A00F8
:100060000C948A000C948A000000000024002700F1
:100070002A0000000000250028002B0000000000DE
:1000800023002600290004040404040404040202DA
:100090000202020203030303030301020408102007
:1000A0004080010204081020010204081020000012
:1000B0000008000201000003040700000000000027
:1000C0000000230A11241FBECFEFD8E0DEBFCDBF52
:1000D00022E0A2E4B1E001C01D92A830B207E1F72E
:1000E00011E0A0E0B1E0E0E2FAE102C005900D927B
:1000F000A234B107D9F710E0C2E6D0E004C02197DE
:10010000FE010E94080DC136D107C9F70E94CD0536
:100110000C940E0D0C940000AF92BF92CF92DF9220
:10012000EF92FF920F931F93CF93DF936C017B01AC
:100130008B01040F151FEB015E01AE18BF08C0173D
:10014000D10759F06991D601ED91FC910190F081B0
:10015000E02DC6010995892B79F7C501DF91CF9173
:100160001F910F91FF90EF90DF90CF90BF90AF90D5
:100170000895FC01538D448D252F30E0842F90E0AD
:10018000821B930B541710F0CF9608950197089592
:10019000FC01918D828D981761F0A28DAE0FBF2F5B
:1001A000B11D5D968C91928D9F5F9F73928F90E0B1
:1001B00008958FEF9FEF0895FC01918D828D981720
:1001C00031F0828DE80FF11D858D90E008958FEF5D
:1001D0009FEF0895FC01918D228D892F90E0805C26
:1001E0009F4F821B91098F73992708958BE691E0A9
:1001F0000E94EA0021E0892B09F420E0822F089573
:1002000080E090E0892B29F00E94F60081110C9487
:1002100000000895FC01A48DA80FB92FB11DA35AA9
:10022000BF4F2C91848D90E001968F739927848F16
:10023000A689B7892C93A089B1898C918370806439
:100240008C93938D848D981306C00288F389E02DDA
:1002500080818F7D80830895EF92FF920F931F938B
:10026000CF93DF93EC0181E0888F9B8D8C8D981369
:100270001AC0E889F989808185FF15C09FB7F89475
:10028000EE89FF896083E889F989808183708064C1
:1002900080839FBF81E090E0DF91CF911F910F910C
:1002A000FF90EF900895F62E0B8D10E00F5F1F4F1B
:1002B0000F731127E02E8C8D8E110CC00FB607FC2A
:1002C000FACFE889F989808185FFF5CFCE010E94B8
:1002D0000A01F1CFEB8DEC0FFD2FF11DE35AFF4F1B
:1002E000F0829FB7F8940B8FEA89FB898081806246
:1002F000CFCF682F8BE691E00C942C01CF93DF9346
:10030000EC01888D8823B9F0AA89BB89E889F9892D
:100310008C9185FD03C0808186FD0DC00FB607FC62
:10032000F7CF8C9185FFF2CF808185FFEDCFCE0195
:100330000E940A01E9CFDF91CF910895833081F0C7
:1003400028F4813099F08230A9F008958730A9F01F
:100350008830C9F08430B1F4809180008F7D03C073
:10036000809180008F7780938000089584B58F7787
:1003700084BD089584B58F7DFBCF8091B0008F77C9
:100380008093B00008958091B0008F7DF9CFCF9316
:10039000DF93282F30E0F901E255FF4F8491F901F6
:1003A000E656FF4FD491F901EA57FF4FC491CC2391
:1003B000A1F081110E949E01EC2FF0E0EE0FFF1FD3
:1003C000E458FF4FA591B491EC91ED2381E090E0CA
:1003D00009F480E0DF91CF91089580E090E0FACFBA
:1003E0001F93CF93DF93282F30E0F901E255FF4FA1
:1003F0008491F901E656FF4FD491F901EA57FF4F76
:10040000C491CC23A9F0162F81110E949E01EC2FDC
:10041000F0E0EE0FFF1FEE58FF4FA591B4918FB79C
:10042000F894EC91111108C0D095DE23DC938FBFB6
:10043000DF91CF911F910895DE2BF8CFCF93DF93FB
:1004400090E0FC01E656FF4F24918A579F4FFC0134
:1004500084918823D1F090E0880F991FFC01E8591E
:10046000FF4FA591B491FC01EE58FF4FC591D49177
:1004700061110EC09FB7F8948C91E22FE0958E2306
:100480008C932881E223E8839FBFDF91CF91089569
:100490008FB7F894EC91E22BEC938FBFF6CF1F93BC
:1004A000CF93DF93182FEB0161E00E941E0220978B
:1004B00039F460E0812FDF91CF911F910C94F0010E
:1004C000CF3FD10511F461E0F5CFE12FF0E0E25527
:1004D000FF4FE491E33031F140F4E130B1F0E2302C
:1004E000E1F0C038D1057CF7E4CFE73029F1E830FE
:1004F00059F1E430B1F780918000806280938000F0
:10050000D0938B00C0938A0004C084B5806884BDFA
:10051000C7BDDF91CF911F91089584B5806284BDDE
:10052000C8BDF7CF80918000806880938000D09311
:100530008900C0938800EDCF8091B00080688093DF
:10054000B000C093B300E5CF8091B000806280938B
:10055000B000C093B400DDCF3FB7F89480915B0149
:1005600090915C01A0915D01B0915E0126B5A89BC0
:1005700005C02F3F19F00196A11DB11D3FBFBA2F35
:10058000A92F982F8827BC01CD01620F711D811DF5
:10059000911D42E0660F771F881F991F4A95D1F77A
:1005A00008958F929F92AF92BF92CF92DF92EF9277
:1005B000FF920E94AC020E94570A6B017C012091BD
:1005C0004A0130914B0140914C0150914D010E94E4
:1005D000740B20E034E244E759E40E94E10B4B0144
:1005E0005C012FE632E143E85AE30E94500A87FD9E
:1005F00040C082E00E94C701892BD9F120914201BD
:100600003091430140914401509145016091460170
:10061000709147018091480190914901A1E00E94A9
:10062000F30C2093420130934301409344015093D3
:100630004501609346017093470180934801909370
:100640004901A50194016CE779ED80EA9EE30E94DF
:10065000E10B609367017093680180936901909347
:100660006A01C0924A01D0924B01E0924C01F09293
:100670004D01FF90EF90DF90CF90BF90AF909F9093
:100680008F9008958F929F92AF92BF92CF92DF92F8
:10069000EF92FF920E94AC020E94570A6B017C010C
:1006A00020915601309157014091580150915901C4
:1006B0000E94740B20E034E244E759E40E94E10B0D
:1006C0004B015C012FE632E143E85AE30E94500AF5
:1006D00087FD40C083E00E94C701892BD9F120919A
:1006E0004E0130914F014091500150915101609164
:1006F0005201709153018091540190915501A1E0F4
:100700000E94F30C20934E0130934F01409350010F
:10071000509351016093520170935301809354019F
:1007200090935501A50194016CE779ED80EA9EE371
:100730000E94E10B609363017093640180936501F3
:1007400090936601C0925601D0925701E0925801F1
:10075000F0925901FF90EF90DF90CF90BF90AF9053
:100760009F908F9008950895FC0101900020E9F773
:100770003197AF01481B590BBC018BE691E00C94FB
:100780008C008F929F92AF92BF920F931F93CF9343
:10079000DF93CDB7DEB7A1970FB6F894DEBF0FBEDB
:1007A000CDBF19A2423008F44AE08E010F5D1F4F01
:1007B000842E912CB12CA12CA50194010E94D10C66
:1007C000E62FB901CA01EA30F4F4E05DD801EE93F6
:1007D0008D01232B242B252B79F790E080E01097B7
:1007E00019F0CD010E94B403A1960FB6F894DEBFB4
:1007F0000FBECDBFDF91CF911F910F91BF90AF90F2
:100800009F908F900895E95CE1CF4F925F926F9235
:100810007F928F929F92AF92BF92CF92DF92EF9290
:10082000FF920F931F93CF936B017C01742EAC0149
:100830009B010E94CC0C882399F086E191E0CF9136
:100840001F910F91FF90EF90DF90CF90BF90AF90EE
:100850009F908F907F906F905F904F900C94B40317
:1008600046015701E894B7F82FEF3FEF4FE75FE7F6
:10087000C501B4010E94CC0C81110DC02FEF3FEFD8
:100880004FE75FE7C501B4010E94500A18161CF437
:100890008AE191E0D4CF2FEF3FEF4FE75FE4C7014C
:1008A000B6010E94C70C18161CF48EE191E0C7CF68
:1008B0002FEF3FEF4FE75FECC701B6010E94500AF0
:1008C00087FDF3CF20E030E0A901C701B6010E9407
:1008D000500A10E000E087FF08C08DE20E94790115
:1008E0008C01F7FAF094F7F8F094C0E060E070E063
:1008F00080E09FE37C1641F020E030E040E251E4EC
:100900000E94E10BCF5FF6CFA70196010E94750B05
:100910002B013C010E945A0C4B015C014AE00E94F1
:10092000C1037C01E00EF11ECC23B1F1C501B4017D
:100930000E94550A9B01AC01C301B2010E94740BD5
:100940004B015C018EE20E947901E80EF91EC15054
:1009500018F120E030E040E251E4C501B4010E940A
:10096000B60A2B013C010E945A0C4B01B12CA12C60
:100970004AE0C501B4010E94C103E80EF91EC50199
:10098000B4010E94550A9B01AC01C301B2010E944F
:10099000740B4B015C01DBCFC701CF911F910F910D
:1009A000FF90EF90DF90CF90BF90AF909F908F908F
:1009B0007F906F905F904F9008951F920F920FB6A7
:1009C0000F9211242F933F934F935F936F937F93D5
:1009D0008F939F93AF93BF93EF93FF938BE691E039
:1009E0000E940A01FF91EF91BF91AF919F918F916A
:1009F0007F916F915F914F913F912F910F900FBE1B
:100A00000F901F9018951F920F920FB60F921124FE
:100A10002F938F939F93EF93FF93E0917B01F0913E
:100A20007C018081E0918101F091820182FD1BC0F7
:100A30009081809184018F5F8F732091850182174F
:100A400041F0E0918401F0E0E559FE4F958F8093ED
:100A50008401FF91EF919F918F912F910F900FBE85
:100A60000F901F9018958081F4CF1F920F920FB6B0
:100A70000F9211242F933F938F939F93AF93BF9324
:100A800080915F0190916001A0916101B09162013C
:100A900030915A0123E0230F2D3758F50196A11DFF
:100AA000B11D20935A0180935F0190936001A09340
:100AB0006101B093620180915B0190915C01A09112
:100AC0005D01B0915E010196A11DB11D80935B0196
:100AD00090935C01A0935D01B0935E01BF91AF91D3
:100AE0009F918F913F912F910F900FBE0F901F906C
:100AF000189526E8230F0296A11DB11DD2CF1F9293
:100B00000F920FB60F9211242F933F934F935F9341
:100B10006F937F938F939F93AF93BF93EF93FF93C5
:100B2000E0910201F09103010995FF91EF91BF91CE
:100B3000AF919F918F917F916F915F914F913F9175
:100B40002F910F900FBE0F901F9018951F920F922C
:100B50000FB60F9211242F933F934F935F936F9390
:100B60007F938F939F93AF93BF93EF93FF93E09106
:100B70000001F09101010995FF91EF91BF91AF91B3
:100B80009F918F917F916F915F914F913F912F91A5
:100B90000F900FBE0F901F901895CF93DF93CDB796
:100BA000DEB7E0970FB6F894DEBF0FBECDBF7894E6
:100BB00084B5826084BD84B5816084BD85B5826062
:100BC00085BD85B5816085BD80916E008160809313
:100BD0006E0010928100809181008260809381007C
:100BE000809181008160809381008091800081608C
:100BF000809380008091B10084608093B1008091E7
:100C0000B00081608093B00080917A00846080930E
:100C10007A0080917A00826080937A0080917A00D5
:100C2000816080937A0080917A00806880937A0056
:100C30001092C10060E082E00E941E0260E083E04A
:100C40000E941E0261E08DE00E941E0281ED92E092
:100C500090930101809300018091690083608093EB
:100C60006900E89A82E493E0909303018093020183
:100C7000809169008C6080936900E99AE0917B0122
:100C8000F0917C0182E08083E0917701F09178011E
:100C90001082E0917901F0917A018FEC80831092BB
:100CA0008301E0917F01F091800186E08083E091F3
:100CB0007D01F0917E01808180618083E0917D01E2
:100CC000F0917E01808188608083E0917D01F091C8
:100CD0007E01808180688083E0917D01F0917E01BA
:100CE00080818F7D80838E010F5F1F4F1C8B0B8B4C
:100CF0009E012F5E3F4F3A8B298B61E086E00E9478
:100D00001E0261E087E00E941E0261E089E00E940D
:100D10001E0261E087E00E941E0261E08AE00E94FC
:100D20001E0261E08BE00E941E0261E08DE00E94E5
:100D3000F0018BE691E00E94EA00892BD1F3AB89A8
:100D4000BC89E0E11D92EA95E9F78E010F5F1F4F24
:100D50002FB7F89480915F0190916001A09161019B
:100D6000B09162012FBF8093730190937401A0939F
:100D70007501B09376018BE691E00E94C80097FF61
:100D8000FDC22FB7F89480915F0190916001A0910E
:100D90006101B09162012FBF4091730150917401C4
:100DA0006091750170917601841B950BA60BB70BB2
:100DB00040916F01509170016091710170917201C9
:100DC00084179507A607B707B0F2E980FA800B8170
:100DD0001C81E9A2FAA20BA31CA30D811E812F8105
:100DE00038850DA31EA32FA338A7C984DA84EB840A
:100DF000FC842D853E854F85588929A73AA74BA7A6
:100E00005CA782E291E00E94B40342E069A17AA16A
:100E10008BA19CA10E94050487E291E00E94B4038B
:100E200089E291E00E94B40342E06DA17EA18FA10E
:100E300098A50E94050487E291E00E94B4038EE227
:100E400091E00E94B40342E0C701B6010E9405048C
:100E500087E291E00E94B40383E391E00E94B4032F
:100E600042E069A57AA58BA59CA50E9405048FE3A5
:100E700091E00E94B4038BE691E00E94EA00892B86
:100E800059F08BE691E00E94EA00892B29F08BE66D
:100E900091E00E94C800F5CF8BE691E00E94EA0045
:100EA000892BD1F38BE691E00E94EA00892B29F08F
:100EB0008BE691E00E94C800F5CF60E08DE00E94D3
:100EC000F0010E94AC027B018C0120E030E0A9011E
:100ED0006D8BFE8A8F8B188F298F3A8F4B8F5C8F8B
:100EE0001D8E1E8E1F8E18A2412C512C3201812C7A
:100EF000912CA12CB12CC12CD12C312C212C10E007
:100F00008BE691E00E94EA00892BB1F08BE691E03C
:100F10000E94C80060E086E00E941E0260E087E058
:100F20000E941E0260E089E00E941E0260E088E0EC
:100F30000E941E0211E0E4CF111113C29401A50119
:100F4000B601832D922D0E94890C20E034E244E703
:100F500059E40E94E10B4B015C0120916701309143
:100F600068014091690150916A0169A57AA58BA534
:100F70009CA50E94740B6B017C0120E030E040E8EE
:100F80005FE3C301B2010E94C70C18164CF420E0C5
:100F900030E0A901C701B6010E94C70C18160CF178
:100FA00020E030E040E85FEBC301B2010E94500A4C
:100FB00087FF09C020E030E0A901C701B6010E9407
:100FC000500A87FD0EC0A7019601C501B4010E9419
:100FD000B60A9B01AC01C301B2010E94750B2B0143
:100FE0003C01A701960169A17AA18BA19CA10E9455
:100FF000B60A6B017C01A30192016DA17EA18FA1B4
:1010000098A50E94B60A9B01AC01C701B6010E94D7
:10101000750B1B018C01209163013091640140919B
:1010200065015091660169A57AA58BA59CA50E94D2
:10103000740B6B017C0120E030E040E85FE36D8DD4
:101040007E8D8F8D98A10E94C70C18164CF420E05D
:1010500030E0A901C701B6010E94C70C18163CF187
:1010600020E030E040E85FEB6D8D7E8D8F8D98A1A4
:101070000E94500A87FF09C020E030E0A901C701A3
:10108000B6010E94500A87FD12C0A7019601C50152
:10109000B4010E94B60A9B01AC016D8D7E8D8F8DCF
:1010A00098A10E94750B6D8F7E8F8F8F98A3A701DB
:1010B000960169A17AA18BA19CA10E94B60A6B013D
:1010C0007C012D8D3E8D4F8D58A16DA17EA18FA1EC
:1010D00098A50E94B60A9B01AC01C701B6010E9407
:1010E000750B6DA77EA78FA798AB20E030E0A90114
:1010F0000E94C70C812C912C5401181624F48DA445
:101100009EA4AFA4B8A820E030E0A901B101C801B5
:101110000E94C70C20E030E040E85FEB18160CF0AE
:1011200077C1B101C8010E94500A87FD55C120E076
:1011300030E040E85FE3B101C8010E94C70C181617
:101140000CF426C120E030E040E85FEBC501B401BB
:101150000E94500A87FDCCC020E030E040E85FE309
:10116000C501B4010E94C70C6101780118168CF00A
:1011700020E030E0A901C701B6010E94C70C181693
:10118000DCF020E030E04FE753E4C701B6019058AF
:1011900019C0812C912CB0E8AB2EBFE3BB2EE8CF59
:1011A000812C912CF0E8AF2EFFEBBF2EC12CD12C5F
:1011B000A0E8EA2EAFE3FA2E20E030E04FE753E458
:1011C000C701B6010E94B60A0E94530C8AE00E9431
:1011D0004F0220E030E0A901C501B4010E94C70C14
:1011E00020E030E04FE753E418160CF0AAC0C50128
:1011F000B4010E94B60A0E94530C8BE00E944F0279
:1012000020E030E0A901C701B6010E94C70C87FDAC
:101210009CC061E086E00E94F00160E087E00E94EF
:10122000F00120E030E0A901C501B4010E94C70C23
:1012300087FD91C061E089E00E94F00160E088E0F4
:101240000E94F001609167017091680180916901CD
:1012500090916A0142E00E94050489E00E947901B0
:1012600060916301709164018091650190916601C4
:1012700042E00E94050489E00E94790142E0B10148
:10128000C8010E94050489E00E94790142E06DA531
:101290007EA58FA598A90E9405048FE391E00E9486
:1012A000B4030E94AC029B01AC0160E070E080E0FE
:1012B00090E0AD88BE88CF88D88CE98CFA8C0B8DF5
:1012C0001C8D0E94FF0C49015A016B01382E292EFA
:1012D0000E94AC027B018C0120E030E0A9016D8B03
:1012E000FE8A8F8B188F298F3A8F4B8F5C8F07CE9A
:1012F00061017801812C912CE0E8AE2EEFEBBE2E3F
:101300005BCF812C912C60E8A62E6FEBB62E750179
:10131000640137CF812C912C50E8A52E5FEBB52EC0
:10132000C12CD12C76012DCF812C912C30E8A32E0D
:101330003FE3B32EC12CD12C40E8E42E4FEBF42E2A
:1013400020CFC501B401905854CF60E086E00E94E0
:10135000F00161E063CF60E089E00E94F00161E0AC
:101360006ECF00E010E0012B09F4C7CC0E94F6001C
:10137000882309F4C2CC0E940000BFCCD8018D9311
:101380008D01E989FA89EA17FB0709F0E1CC1DCD47
:1013900020E030E040E85FEBC501B4010E94500A54
:1013A00087FDFECE20E030E040E85FE3C501B401F8
:1013B0000E94C70CC12CD12C90E8E92E9FE3F92E96
:1013C00018160CF0D5CE812C912C70E8A72E7FE357
:1013D000B72E75016401F0CE20E030E040E85FEB0D
:1013E000C501B4010E94500A87FD8BCF20E030E098
:1013F00040E85FE3C501B4010E94C70C18160CF465
:1014000093CFC12CD12C80E8E82E8FEBF82EB0CEF4
:10141000C501B4010E94500A87FD7CCF20E030E076
:1014200040E85FE3C501B4010E94C70CC12CD12C78
:10143000760118160CF09CCE812C912C20E8A22E5F
:101440002FE3B22E6DCFEBE6F1E01382128288EE2D
:1014500093E0A0E0B0E084839583A683B78388E01F
:1014600091E09183808385EC90E09587848784EC7C
:1014700090E09787868780EC90E0918B808B81EC61
:1014800090E0938B828B82EC90E0958B848B86EC42
:1014900090E0978B868B118E128E138E148E08958A
:1014A0000E94920A08F481E00895E89409C097FB2D
:1014B0003EF490958095709561957F4F8F4F9F4F2B
:1014C0009923A9F0F92F96E9BB279395F69587956F
:1014D00077956795B795F111F8CFFAF4BB0F11F432
:1014E00060FF1BC06F5F7F4F8F4F9F4F16C08823D9
:1014F00011F096E911C0772321F09EE8872F762F0F
:1015000005C0662371F096E8862F70E060E02AF04F
:101510009A95660F771F881FDAF7880F969587953B
:1015200097F90895990F0008550FAA0BE0E8FEEF10
:1015300016161706E807F907C0F012161306E40797
:10154000F50798F0621B730B840B950B39F40A2690
:1015500061F0232B242B252B21F408950A2609F46E
:10156000A140A6958FEF811D811D08950E94C90A93
:101570000C943A0B0E942C0B38F00E94330B20F095
:10158000952311F00C94230B0C94290B11240C942B
:101590006E0B0E944B0B70F3959FC1F3950F50E0BB
:1015A000551F629FF001729FBB27F00DB11D639F15
:1015B000AA27F00DB11DAA1F649F6627B00DA11DBB
:1015C000661F829F2227B00DA11D621F739FB00D61
:1015D000A11D621F839FA00D611D221F749F3327D1
:1015E000A00D611D231F849F600D211D822F762F6A
:1015F0006A2F11249F5750409AF0F1F088234AF047
:10160000EE0FFF1FBB1F661F771F881F91505040B2
:10161000A9F79E3F510580F00C94230B0C946E0BA0
:101620005F3FE4F3983ED4F3869577956795B79539
:10163000F795E7959F5FC1F7FE2B880F911D969553
:10164000879597F9089597F99F6780E870E060E0C3
:1016500008959FEF80EC089500240A94161617064B
:1016600018060906089500240A9412161306140693
:1016700005060895092E0394000C11F4882352F0F6
:10168000BB0F40F4BF2B11F460FF04C06F5F7F4FAE
:101690008F4F9F4F089557FD9058440F551F59F095
:1016A0005F3F71F04795880F97FB991F61F09F3F4F
:1016B00079F087950895121613061406551FF2CF78
:1016C0004695F1DF08C0161617061806991FF1CFC8
:1016D00086957105610508940895E894BB276627EF
:1016E0007727CB0197F908955058BB27AA270E9466
:1016F0008C0B0C943A0B0E942C0B38F00E94330B8D
:1017000020F039F49F3F19F426F40C94290B0EF4C1
:10171000E095E7FB0C94230BE92F0E944B0B58F349
:10172000BA17620773078407950720F079F4A6F5C6
:101730000C946D0B0EF4E0950B2EBA2FA02D0B011F
:10174000B90190010C01CA01A0011124FF27591B06
:1017500099F0593F50F4503E68F11A16F040A22F0C
:10176000232F342F4427585FF3CF4695379527957D
:10177000A795F0405395C9F77EF41F16BA0B620B7C
:10178000730B840BBAF09150A1F0FF0FBB1F661FC3
:10179000771F881FC2F70EC0BA0F621F731F841F06
:1017A00048F4879577956795B795F7959E3F08F02C
:1017B000B0CF9395880F08F09927EE0F97958795EE
:1017C00008950E94F50B0C943A0B0E94330B58F0CD
:1017D0000E942C0B40F029F45F3F29F00C94230B5E
:1017E00051110C946E0B0C94290B0E944B0B68F357
:1017F0009923B1F3552391F3951B550BBB27AA27CA
:1018000062177307840738F09F5F5F4F220F331F03
:10181000441FAA1FA9F335D00E2E3AF0E0E832D0CB
:1018200091505040E695001CCAF72BD0FE2F29D0CE
:10183000660F771F881FBB1F261737074807AB07A0
:10184000B0E809F0BB0B802DBF01FF2793585F4F15
:101850003AF09E3F510578F00C94230B0C946E0BDC
:101860005F3FE4F3983ED4F3869577956795B795F7
:10187000F7959F5FC9F7880F911D9695879597F902
:101880000895E1E0660F771F881FBB1F621773077B
:101890008407BA0720F0621B730B840BBA0BEE1F90
:1018A00088F7E09508950E945A0C6894B1110C9441
:1018B0006E0B08950E94530B88F09F5798F0B92F34
:1018C0009927B751B0F0E1F0660F771F881F991F75
:1018D0001AF0BA95C9F714C0B13091F00E946D0B9F
:1018E000B1E008950C946D0B672F782F8827B85FAF
:1018F00039F0B93FCCF3869577956795B395D9F7CD
:101900003EF490958095709561957F4F8F4F9F4FD6
:101910000895E894F92F96EBFF2381F01216130631
:101920001406440B9395F69587957795679557958B
:101930004040FF23B9F71BC099270895882351F42D
:101940009850D2F7872B762F652F542F432F322FA5
:1019500020E0B1F3121613061406440B88233AF064
:101960009A95440F551F661F771F881FCAF7552386
:101970004AF4440F551F11F460FF04C06F5F7F4F9E
:101980008F4F9F4F880F9695879597F908950E94DE
:10199000920A08F48FEF08950E94920A880B990B1F
:1019A0000895A1E21A2EAA1BBB1BFD010DC0AA1FA0
:1019B000BB1FEE1FFF1FA217B307E407F50720F0B8
:1019C000A21BB30BE40BF50B661F771F881F991F33
:1019D0001A9469F760957095809590959B01AC017C
:1019E000BD01CF0108950024A7FD00942A0F301DEA
:1019F000401D501D601D701D801D901D08952A19E9
:101A00003B094C095D096E097F09800B910B089514
:101A1000EE0FFF1F0590F491E02D0994F894FFCF8D
:101A2000B303B303000000002C018C00B9007E0159
:101A3000EA00C800DC006E616E00696E66006F76B9
:101A400066004B703A20002C004B693A20004B6432
:101A50003A20007365745F706F696E743A20000DF0
:021A60000A007A
:107E0000112484B714BE81FFF0D085E080938100F7
:107E100082E08093C00088E18093C10086E0809377
:107E2000C20080E18093C4008EE0C9D0259A86E02C
:107E300020E33CEF91E0309385002093840096BBD3
:107E4000B09BFECF1D9AA8958150A9F7CC24DD24C4
:107E500088248394B5E0AB2EA1E19A2EF3E0BF2EE7
:107E6000A2D0813461F49FD0082FAFD0023811F036
:107E7000013811F484E001C083E08DD089C08234E0
:107E800011F484E103C0853419F485E0A6D080C0E4
:107E9000853579F488D0E82EFF2485D0082F10E0AE
:107EA000102F00270E291F29000F111F8ED06801E7
:107EB0006FC0863521F484E090D080E0DECF843638
:107EC00009F040C070D06FD0082F6DD080E0C81688
:107ED00080E7D80618F4F601B7BEE895C0E0D1E017
:107EE00062D089930C17E1F7F0E0CF16F0E7DF06D8
:107EF00018F0F601B7BEE89568D007B600FCFDCFD4
:107F0000A601A0E0B1E02C9130E011968C91119780
:107F100090E0982F8827822B932B1296FA010C0160
:107F200087BEE89511244E5F5F4FF1E0A038BF0790
:107F300051F7F601A7BEE89507B600FCFDCF97BE46
:107F4000E89526C08437B1F42ED02DD0F82E2BD052
:107F50003CD0F601EF2C8F010F5F1F4F84911BD097
:107F6000EA94F801C1F70894C11CD11CFA94CF0C13
:107F7000D11C0EC0853739F428D08EE10CD085E9AC
:107F80000AD08FE07ACF813511F488E018D01DD067
:107F900080E101D065CF982F8091C00085FFFCCF94
:107FA0009093C60008958091C00087FFFCCF809118
:107FB000C00084FD01C0A8958091C6000895E0E648
:107FC000F0E098E1908380830895EDDF803219F02E
:107FD00088E0F5DFFFCF84E1DECF1F93182FE3DFCA
:107FE0001150E9F7F2DF1F91089580E0E8DFEE27F6
:047FF000FF270994CA
:027FFE00040479
:00000001FF
